{
    "_format": "hh-sol-artifact-1",
    "contractName": "MyToken",
    "sourceName": "contracts/TokenTest.sol",
    "abi": [
        {
            "inputs": [
                {
                    "internalType": "address",
                    "name": "spender",
                    "type": "address"
                },
                {
                    "internalType": "uint256",
                    "name": "value",
                    "type": "uint256"
                }
            ],
            "name": "approve",
            "outputs": [
                {
                    "internalType": "bool",
                    "name": "",
                    "type": "bool"
                }
            ],
            "stateMutability": "nonpayable",
            "type": "function"
        },
        {
            "inputs": [
                {
                    "internalType": "uint256",
                    "name": "value",
                    "type": "uint256"
                }
            ],
            "name": "burn",
            "outputs": [],
            "stateMutability": "nonpayable",
            "type": "function"
        },
        {
            "inputs": [
                {
                    "internalType": "address",
                    "name": "account",
                    "type": "address"
                },
                {
                    "internalType": "uint256",
                    "name": "value",
                    "type": "uint256"
                }
            ],
            "name": "burnFrom",
            "outputs": [],
            "stateMutability": "nonpayable",
            "type": "function"
        },
        {
            "inputs": [
                {
                    "internalType": "address",
                    "name": "initialOwner",
                    "type": "address"
                }
            ],
            "stateMutability": "nonpayable",
            "type": "constructor"
        },
        {
            "inputs": [],
            "name": "ECDSAInvalidSignature",
            "type": "error"
        },
        {
            "inputs": [
                {
                    "internalType": "uint256",
                    "name": "length",
                    "type": "uint256"
                }
            ],
            "name": "ECDSAInvalidSignatureLength",
            "type": "error"
        },
        {
            "inputs": [
                {
                    "internalType": "bytes32",
                    "name": "s",
                    "type": "bytes32"
                }
            ],
            "name": "ECDSAInvalidSignatureS",
            "type": "error"
        },
        {
            "inputs": [
                {
                    "internalType": "address",
                    "name": "spender",
                    "type": "address"
                },
                {
                    "internalType": "uint256",
                    "name": "allowance",
                    "type": "uint256"
                },
                {
                    "internalType": "uint256",
                    "name": "needed",
                    "type": "uint256"
                }
            ],
            "name": "ERC20InsufficientAllowance",
            "type": "error"
        },
        {
            "inputs": [
                {
                    "internalType": "address",
                    "name": "sender",
                    "type": "address"
                },
                {
                    "internalType": "uint256",
                    "name": "balance",
                    "type": "uint256"
                },
                {
                    "internalType": "uint256",
                    "name": "needed",
                    "type": "uint256"
                }
            ],
            "name": "ERC20InsufficientBalance",
            "type": "error"
        },
        {
            "inputs": [
                {
                    "internalType": "address",
                    "name": "approver",
                    "type": "address"
                }
            ],
            "name": "ERC20InvalidApprover",
            "type": "error"
        },
        {
            "inputs": [
                {
                    "internalType": "address",
                    "name": "receiver",
                    "type": "address"
                }
            ],
            "name": "ERC20InvalidReceiver",
            "type": "error"
        },
        {
            "inputs": [
                {
                    "internalType": "address",
                    "name": "sender",
                    "type": "address"
                }
            ],
            "name": "ERC20InvalidSender",
            "type": "error"
        },
        {
            "inputs": [
                {
                    "internalType": "address",
                    "name": "spender",
                    "type": "address"
                }
            ],
            "name": "ERC20InvalidSpender",
            "type": "error"
        },
        {
            "inputs": [
                {
                    "internalType": "uint256",
                    "name": "deadline",
                    "type": "uint256"
                }
            ],
            "name": "ERC2612ExpiredSignature",
            "type": "error"
        },
        {
            "inputs": [
                {
                    "internalType": "address",
                    "name": "signer",
                    "type": "address"
                },
                {
                    "internalType": "address",
                    "name": "owner",
                    "type": "address"
                }
            ],
            "name": "ERC2612InvalidSigner",
            "type": "error"
        },
        {
            "inputs": [
                {
                    "internalType": "uint256",
                    "name": "maxLoan",
                    "type": "uint256"
                }
            ],
            "name": "ERC3156ExceededMaxLoan",
            "type": "error"
        },
        {
            "inputs": [
                {
                    "internalType": "address",
                    "name": "receiver",
                    "type": "address"
                }
            ],
            "name": "ERC3156InvalidReceiver",
            "type": "error"
        },
        {
            "inputs": [
                {
                    "internalType": "address",
                    "name": "token",
                    "type": "address"
                }
            ],
            "name": "ERC3156UnsupportedToken",
            "type": "error"
        },
        {
            "inputs": [
                {
                    "internalType": "contract IERC3156FlashBorrower",
                    "name": "receiver",
                    "type": "address"
                },
                {
                    "internalType": "address",
                    "name": "token",
                    "type": "address"
                },
                {
                    "internalType": "uint256",
                    "name": "value",
                    "type": "uint256"
                },
                {
                    "internalType": "bytes",
                    "name": "data",
                    "type": "bytes"
                }
            ],
            "name": "flashLoan",
            "outputs": [
                {
                    "internalType": "bool",
                    "name": "",
                    "type": "bool"
                }
            ],
            "stateMutability": "nonpayable",
            "type": "function"
        },
        {
            "inputs": [
                {
                    "internalType": "address",
                    "name": "account",
                    "type": "address"
                },
                {
                    "internalType": "uint256",
                    "name": "currentNonce",
                    "type": "uint256"
                }
            ],
            "name": "InvalidAccountNonce",
            "type": "error"
        },
        {
            "inputs": [],
            "name": "InvalidShortString",
            "type": "error"
        },
        {
            "inputs": [
                {
                    "internalType": "address",
                    "name": "to",
                    "type": "address"
                },
                {
                    "internalType": "uint256",
                    "name": "amount",
                    "type": "uint256"
                }
            ],
            "name": "mint",
            "outputs": [],
            "stateMutability": "nonpayable",
            "type": "function"
        },
        {
            "inputs": [
                {
                    "internalType": "address",
                    "name": "owner",
                    "type": "address"
                }
            ],
            "name": "OwnableInvalidOwner",
            "type": "error"
        },
        {
            "inputs": [
                {
                    "internalType": "address",
                    "name": "account",
                    "type": "address"
                }
            ],
            "name": "OwnableUnauthorizedAccount",
            "type": "error"
        },
        {
            "inputs": [
                {
                    "internalType": "address",
                    "name": "owner",
                    "type": "address"
                },
                {
                    "internalType": "address",
                    "name": "spender",
                    "type": "address"
                },
                {
                    "internalType": "uint256",
                    "name": "value",
                    "type": "uint256"
                },
                {
                    "internalType": "uint256",
                    "name": "deadline",
                    "type": "uint256"
                },
                {
                    "internalType": "uint8",
                    "name": "v",
                    "type": "uint8"
                },
                {
                    "internalType": "bytes32",
                    "name": "r",
                    "type": "bytes32"
                },
                {
                    "internalType": "bytes32",
                    "name": "s",
                    "type": "bytes32"
                }
            ],
            "name": "permit",
            "outputs": [],
            "stateMutability": "nonpayable",
            "type": "function"
        },
        {
            "inputs": [],
            "name": "renounceOwnership",
            "outputs": [],
            "stateMutability": "nonpayable",
            "type": "function"
        },
        {
            "inputs": [
                {
                    "internalType": "string",
                    "name": "str",
                    "type": "string"
                }
            ],
            "name": "StringTooLong",
            "type": "error"
        },
        {
            "anonymous": false,
            "inputs": [
                {
                    "indexed": true,
                    "internalType": "address",
                    "name": "owner",
                    "type": "address"
                },
                {
                    "indexed": true,
                    "internalType": "address",
                    "name": "spender",
                    "type": "address"
                },
                {
                    "indexed": false,
                    "internalType": "uint256",
                    "name": "value",
                    "type": "uint256"
                }
            ],
            "name": "Approval",
            "type": "event"
        },
        {
            "anonymous": false,
            "inputs": [],
            "name": "EIP712DomainChanged",
            "type": "event"
        },
        {
            "anonymous": false,
            "inputs": [
                {
                    "indexed": true,
                    "internalType": "address",
                    "name": "previousOwner",
                    "type": "address"
                },
                {
                    "indexed": true,
                    "internalType": "address",
                    "name": "newOwner",
                    "type": "address"
                }
            ],
            "name": "OwnershipTransferred",
            "type": "event"
        },
        {
            "inputs": [
                {
                    "internalType": "address",
                    "name": "to",
                    "type": "address"
                },
                {
                    "internalType": "uint256",
                    "name": "value",
                    "type": "uint256"
                }
            ],
            "name": "transfer",
            "outputs": [
                {
                    "internalType": "bool",
                    "name": "",
                    "type": "bool"
                }
            ],
            "stateMutability": "nonpayable",
            "type": "function"
        },
        {
            "anonymous": false,
            "inputs": [
                {
                    "indexed": true,
                    "internalType": "address",
                    "name": "from",
                    "type": "address"
                },
                {
                    "indexed": true,
                    "internalType": "address",
                    "name": "to",
                    "type": "address"
                },
                {
                    "indexed": false,
                    "internalType": "uint256",
                    "name": "value",
                    "type": "uint256"
                }
            ],
            "name": "Transfer",
            "type": "event"
        },
        {
            "inputs": [
                {
                    "internalType": "address",
                    "name": "from",
                    "type": "address"
                },
                {
                    "internalType": "address",
                    "name": "to",
                    "type": "address"
                },
                {
                    "internalType": "uint256",
                    "name": "value",
                    "type": "uint256"
                }
            ],
            "name": "transferFrom",
            "outputs": [
                {
                    "internalType": "bool",
                    "name": "",
                    "type": "bool"
                }
            ],
            "stateMutability": "nonpayable",
            "type": "function"
        },
        {
            "inputs": [
                {
                    "internalType": "address",
                    "name": "newOwner",
                    "type": "address"
                }
            ],
            "name": "transferOwnership",
            "outputs": [],
            "stateMutability": "nonpayable",
            "type": "function"
        },
        {
            "inputs": [
                {
                    "internalType": "address",
                    "name": "owner",
                    "type": "address"
                },
                {
                    "internalType": "address",
                    "name": "spender",
                    "type": "address"
                }
            ],
            "name": "allowance",
            "outputs": [
                {
                    "internalType": "uint256",
                    "name": "",
                    "type": "uint256"
                }
            ],
            "stateMutability": "view",
            "type": "function"
        },
        {
            "inputs": [
                {
                    "internalType": "address",
                    "name": "account",
                    "type": "address"
                }
            ],
            "name": "balanceOf",
            "outputs": [
                {
                    "internalType": "uint256",
                    "name": "",
                    "type": "uint256"
                }
            ],
            "stateMutability": "view",
            "type": "function"
        },
        {
            "inputs": [],
            "name": "decimals",
            "outputs": [
                {
                    "internalType": "uint8",
                    "name": "",
                    "type": "uint8"
                }
            ],
            "stateMutability": "view",
            "type": "function"
        },
        {
            "inputs": [],
            "name": "DOMAIN_SEPARATOR",
            "outputs": [
                {
                    "internalType": "bytes32",
                    "name": "",
                    "type": "bytes32"
                }
            ],
            "stateMutability": "view",
            "type": "function"
        },
        {
            "inputs": [],
            "name": "eip712Domain",
            "outputs": [
                {
                    "internalType": "bytes1",
                    "name": "fields",
                    "type": "bytes1"
                },
                {
                    "internalType": "string",
                    "name": "name",
                    "type": "string"
                },
                {
                    "internalType": "string",
                    "name": "version",
                    "type": "string"
                },
                {
                    "internalType": "uint256",
                    "name": "chainId",
                    "type": "uint256"
                },
                {
                    "internalType": "address",
                    "name": "verifyingContract",
                    "type": "address"
                },
                {
                    "internalType": "bytes32",
                    "name": "salt",
                    "type": "bytes32"
                },
                {
                    "internalType": "uint256[]",
                    "name": "extensions",
                    "type": "uint256[]"
                }
            ],
            "stateMutability": "view",
            "type": "function"
        },
        {
            "inputs": [
                {
                    "internalType": "address",
                    "name": "token",
                    "type": "address"
                },
                {
                    "internalType": "uint256",
                    "name": "value",
                    "type": "uint256"
                }
            ],
            "name": "flashFee",
            "outputs": [
                {
                    "internalType": "uint256",
                    "name": "",
                    "type": "uint256"
                }
            ],
            "stateMutability": "view",
            "type": "function"
        },
        {
            "inputs": [
                {
                    "internalType": "address",
                    "name": "token",
                    "type": "address"
                }
            ],
            "name": "maxFlashLoan",
            "outputs": [
                {
                    "internalType": "uint256",
                    "name": "",
                    "type": "uint256"
                }
            ],
            "stateMutability": "view",
            "type": "function"
        },
        {
            "inputs": [],
            "name": "name",
            "outputs": [
                {
                    "internalType": "string",
                    "name": "",
                    "type": "string"
                }
            ],
            "stateMutability": "view",
            "type": "function"
        },
        {
            "inputs": [
                {
                    "internalType": "address",
                    "name": "owner",
                    "type": "address"
                }
            ],
            "name": "nonces",
            "outputs": [
                {
                    "internalType": "uint256",
                    "name": "",
                    "type": "uint256"
                }
            ],
            "stateMutability": "view",
            "type": "function"
        },
        {
            "inputs": [],
            "name": "owner",
            "outputs": [
                {
                    "internalType": "address",
                    "name": "",
                    "type": "address"
                }
            ],
            "stateMutability": "view",
            "type": "function"
        },
        {
            "inputs": [],
            "name": "symbol",
            "outputs": [
                {
                    "internalType": "string",
                    "name": "",
                    "type": "string"
                }
            ],
            "stateMutability": "view",
            "type": "function"
        },
        {
            "inputs": [],
            "name": "totalSupply",
            "outputs": [
                {
                    "internalType": "uint256",
                    "name": "",
                    "type": "uint256"
                }
            ],
            "stateMutability": "view",
            "type": "function"
        }
    ],
    "bytecode": "61016060405234801562000011575f80fd5b506040516200303d3803806200303d8339818101604052810190620000379190620004c0565b6040518060400160405280600781526020017f4d79546f6b656e00000000000000000000000000000000000000000000000000815250806040518060400160405280600181526020017f3100000000000000000000000000000000000000000000000000000000000000815250836040518060400160405280600781526020017f4d79546f6b656e000000000000000000000000000000000000000000000000008152506040518060400160405280600381526020017f4d544b0000000000000000000000000000000000000000000000000000000000815250816003908162000122919062000754565b50806004908162000134919062000754565b5050505f73ffffffffffffffffffffffffffffffffffffffff168173ffffffffffffffffffffffffffffffffffffffff1603620001aa575f6040517f1e4fbdf7000000000000000000000000000000000000000000000000000000008152600401620001a1919062000849565b60405180910390fd5b620001bb816200027460201b60201c565b50620001d26006836200033760201b90919060201c565b6101208181525050620001f06007826200033760201b90919060201c565b6101408181525050818051906020012060e08181525050808051906020012061010081815250504660a081815250506200022f6200038c60201b60201c565b608081815250503073ffffffffffffffffffffffffffffffffffffffff1660c08173ffffffffffffffffffffffffffffffffffffffff16815250505050505062000a34565b5f60055f9054906101000a900473ffffffffffffffffffffffffffffffffffffffff1690508160055f6101000a81548173ffffffffffffffffffffffffffffffffffffffff021916908373ffffffffffffffffffffffffffffffffffffffff1602179055508173ffffffffffffffffffffffffffffffffffffffff168173ffffffffffffffffffffffffffffffffffffffff167f8be0079c531659141344cd1fd0a4f28419497f9722a3daafe3b4186f6b6457e060405160405180910390a35050565b5f6020835110156200035c576200035483620003e860201b60201c565b905062000386565b826200036e836200045260201b60201c565b5f0190816200037e919062000754565b5060ff5f1b90505b92915050565b5f7f8b73c3c69bb8fe3d512ecc4cf759cc79239f7b179b0ffacaa9a75d522b39400f60e051610100514630604051602001620003cd9594939291906200088f565b60405160208183030381529060405280519060200120905090565b5f80829050601f815111156200043757826040517f305a27a90000000000000000000000000000000000000000000000000000000081526004016200042e919062000974565b60405180910390fd5b8051816200044590620009c5565b5f1c175f1b915050919050565b5f819050919050565b5f80fd5b5f73ffffffffffffffffffffffffffffffffffffffff82169050919050565b5f6200048a826200045f565b9050919050565b6200049c816200047e565b8114620004a7575f80fd5b50565b5f81519050620004ba8162000491565b92915050565b5f60208284031215620004d857620004d76200045b565b5b5f620004e784828501620004aa565b91505092915050565b5f81519050919050565b7f4e487b71000000000000000000000000000000000000000000000000000000005f52604160045260245ffd5b7f4e487b71000000000000000000000000000000000000000000000000000000005f52602260045260245ffd5b5f60028204905060018216806200056c57607f821691505b60208210810362000582576200058162000527565b5b50919050565b5f819050815f5260205f209050919050565b5f6020601f8301049050919050565b5f82821b905092915050565b5f60088302620005e67fffffffffffffffffffffffffffffffffffffffffffffffffffffffffffffffff82620005a9565b620005f28683620005a9565b95508019841693508086168417925050509392505050565b5f819050919050565b5f819050919050565b5f6200063c6200063662000630846200060a565b62000613565b6200060a565b9050919050565b5f819050919050565b62000657836200061c565b6200066f620006668262000643565b848454620005b5565b825550505050565b5f90565b6200068562000677565b620006928184846200064c565b505050565b5b81811015620006b957620006ad5f826200067b565b60018101905062000698565b5050565b601f8211156200070857620006d28162000588565b620006dd846200059a565b81016020851015620006ed578190505b62000705620006fc856200059a565b83018262000697565b50505b505050565b5f82821c905092915050565b5f6200072a5f19846008026200070d565b1980831691505092915050565b5f62000744838362000719565b9150826002028217905092915050565b6200075f82620004f0565b67ffffffffffffffff8111156200077b576200077a620004fa565b5b62000787825462000554565b62000794828285620006bd565b5f60209050601f831160018114620007ca575f8415620007b5578287015190505b620007c1858262000737565b86555062000830565b601f198416620007da8662000588565b5f5b828110156200080357848901518255600182019150602085019450602081019050620007dc565b868310156200082357848901516200081f601f89168262000719565b8355505b6001600288020188555050505b505050505050565b62000843816200047e565b82525050565b5f6020820190506200085e5f83018462000838565b92915050565b5f819050919050565b620008788162000864565b82525050565b62000889816200060a565b82525050565b5f60a082019050620008a45f8301886200086d565b620008b360208301876200086d565b620008c260408301866200086d565b620008d160608301856200087e565b620008e0608083018462000838565b9695505050505050565b5f82825260208201905092915050565b5f5b8381101562000919578082015181840152602081019050620008fc565b5f8484015250505050565b5f601f19601f8301169050919050565b5f6200094082620004f0565b6200094c8185620008ea565b93506200095e818560208601620008fa565b620009698162000924565b840191505092915050565b5f6020820190508181035f8301526200098e818462000934565b905092915050565b5f81519050919050565b5f819050602082019050919050565b5f620009bc825162000864565b80915050919050565b5f620009d18262000996565b82620009dd84620009a0565b9050620009ea81620009af565b9250602082101562000a2d5762000a287fffffffffffffffffffffffffffffffffffffffffffffffffffffffffffffffff83602003600802620005a9565b831692505b5050919050565b60805160a05160c05160e0516101005161012051610140516125b762000a865f395f6111f201525f6111b701525f6116f201525f6116d101525f610e6901525f610ebf01525f610ee801526125b75ff3fe608060405234801561000f575f80fd5b5060043610610140575f3560e01c8063715018a6116100b657806395d89b411161007a57806395d89b411461037c578063a9059cbb1461039a578063d505accf146103ca578063d9d98ce4146103e6578063dd62ed3e14610416578063f2fde38b1461044657610140565b8063715018a6146102e457806379cc6790146102ee5780637ecebe001461030a57806384b0196e1461033a5780638da5cb5b1461035e57610140565b80633644e515116101085780633644e515146101fe57806340c10f191461021c57806342966c68146102385780635cffe9de14610254578063613255ab1461028457806370a08231146102b457610140565b806306fdde0314610144578063095ea7b31461016257806318160ddd1461019257806323b872dd146101b0578063313ce567146101e0575b5f80fd5b61014c610462565b6040516101599190611bc2565b60405180910390f35b61017c60048036038101906101779190611c77565b6104f2565b6040516101899190611ccf565b60405180910390f35b61019a610514565b6040516101a79190611cf7565b60405180910390f35b6101ca60048036038101906101c59190611d10565b61051d565b6040516101d79190611ccf565b60405180910390f35b6101e861054b565b6040516101f59190611d7b565b60405180910390f35b610206610553565b6040516102139190611dac565b60405180910390f35b61023660048036038101906102319190611c77565b610561565b005b610252600480360381019061024d9190611dc5565b610577565b005b61026e60048036038101906102699190611e8c565b61058b565b60405161027b9190611ccf565b60405180910390f35b61029e60048036038101906102999190611f10565b610780565b6040516102ab9190611cf7565b60405180910390f35b6102ce60048036038101906102c99190611f10565b6107f5565b6040516102db9190611cf7565b60405180910390f35b6102ec61083a565b005b61030860048036038101906103039190611c77565b61084d565b005b610324600480360381019061031f9190611f10565b61086d565b6040516103319190611cf7565b60405180910390f35b61034261087e565b604051610355979695949392919061203b565b60405180910390f35b610366610923565b60405161037391906120bd565b60405180910390f35b61038461094b565b6040516103919190611bc2565b60405180910390f35b6103b460048036038101906103af9190611c77565b6109db565b6040516103c19190611ccf565b60405180910390f35b6103e460048036038101906103df919061212a565b6109fd565b005b61040060048036038101906103fb9190611c77565b610b42565b60405161040d9190611cf7565b60405180910390f35b610430600480360381019061042b91906121c7565b610bc5565b60405161043d9190611cf7565b60405180910390f35b610460600480360381019061045b9190611f10565b610c47565b005b60606003805461047190612232565b80601f016020809104026020016040519081016040528092919081815260200182805461049d90612232565b80156104e85780601f106104bf576101008083540402835291602001916104e8565b820191905f5260205f20905b8154815290600101906020018083116104cb57829003601f168201915b5050505050905090565b5f806104fc610ccb565b9050610509818585610cd2565b600191505092915050565b5f600254905090565b5f80610527610ccb565b9050610534858285610ce4565b61053f858585610d76565b60019150509392505050565b5f6012905090565b5f61055c610e66565b905090565b610569610f1c565b6105738282610fa3565b5050565b610588610582610ccb565b82611022565b50565b5f8061059686610780565b9050808511156105dd57806040517ffd9a76090000000000000000000000000000000000000000000000000000000081526004016105d49190611cf7565b60405180910390fd5b5f6105e88787610b42565b90506105f48887610fa3565b7f439148f0bbc682ca079e46d6e2c2f0c1e3b820f1a291b069d8882abf8cf18dd98873ffffffffffffffffffffffffffffffffffffffff166323e30c8b610639610ccb565b8a8a868b8b6040518763ffffffff1660e01b815260040161065f969594939291906122ac565b6020604051808303815f875af115801561067b573d5f803e3d5ffd5b505050506040513d601f19601f8201168201806040525081019061069f919061231a565b146106e157876040517f678c5b000000000000000000000000000000000000000000000000000000000081526004016106d891906120bd565b60405180910390fd5b5f6106ea6110a1565b90506107028930848a6106fd9190612372565b610ce4565b5f82148061073b57505f73ffffffffffffffffffffffffffffffffffffffff168173ffffffffffffffffffffffffffffffffffffffff16145b1561075a576107558983896107509190612372565b611022565b610770565b6107648988611022565b61076f898284610d76565b5b6001935050505095945050505050565b5f3073ffffffffffffffffffffffffffffffffffffffff168273ffffffffffffffffffffffffffffffffffffffff16146107ba575f6107ee565b6107c2610514565b7fffffffffffffffffffffffffffffffffffffffffffffffffffffffffffffffff6107ed91906123a5565b5b9050919050565b5f805f8373ffffffffffffffffffffffffffffffffffffffff1673ffffffffffffffffffffffffffffffffffffffff1681526020019081526020015f20549050919050565b610842610f1c565b61084b5f6110a5565b565b61085f82610859610ccb565b83610ce4565b6108698282611022565b5050565b5f61087782611168565b9050919050565b5f6060805f805f606061088f6111ae565b6108976111e9565b46305f801b5f67ffffffffffffffff8111156108b6576108b56123d8565b5b6040519080825280602002602001820160405280156108e45781602001602082028036833780820191505090505b507f0f00000000000000000000000000000000000000000000000000000000000000959493929190965096509650965096509650965090919293949596565b5f60055f9054906101000a900473ffffffffffffffffffffffffffffffffffffffff16905090565b60606004805461095a90612232565b80601f016020809104026020016040519081016040528092919081815260200182805461098690612232565b80156109d15780601f106109a8576101008083540402835291602001916109d1565b820191905f5260205f20905b8154815290600101906020018083116109b457829003601f168201915b5050505050905090565b5f806109e5610ccb565b90506109f2818585610d76565b600191505092915050565b83421115610a4257836040517f62791302000000000000000000000000000000000000000000000000000000008152600401610a399190611cf7565b60405180910390fd5b5f7f6e71edae12b1b97f4d1f60370fef10105fa2faae0126114a169c64845d6126c9888888610a708c611224565b89604051602001610a8696959493929190612405565b6040516020818303038152906040528051906020012090505f610aa882611277565b90505f610ab782878787611290565b90508973ffffffffffffffffffffffffffffffffffffffff168173ffffffffffffffffffffffffffffffffffffffff1614610b2b57808a6040517f4b800e46000000000000000000000000000000000000000000000000000000008152600401610b22929190612464565b60405180910390fd5b610b368a8a8a610cd2565b50505050505050505050565b5f3073ffffffffffffffffffffffffffffffffffffffff168373ffffffffffffffffffffffffffffffffffffffff1614610bb357826040517fb5a7db92000000000000000000000000000000000000000000000000000000008152600401610baa91906120bd565b60405180910390fd5b610bbd83836112be565b905092915050565b5f60015f8473ffffffffffffffffffffffffffffffffffffffff1673ffffffffffffffffffffffffffffffffffffffff1681526020019081526020015f205f8373ffffffffffffffffffffffffffffffffffffffff1673ffffffffffffffffffffffffffffffffffffffff1681526020019081526020015f2054905092915050565b610c4f610f1c565b5f73ffffffffffffffffffffffffffffffffffffffff168173ffffffffffffffffffffffffffffffffffffffff1603610cbf575f6040517f1e4fbdf7000000000000000000000000000000000000000000000000000000008152600401610cb691906120bd565b60405180910390fd5b610cc8816110a5565b50565b5f33905090565b610cdf83838360016112c5565b505050565b5f610cef8484610bc5565b90507fffffffffffffffffffffffffffffffffffffffffffffffffffffffffffffffff8114610d705781811015610d61578281836040517ffb8f41b2000000000000000000000000000000000000000000000000000000008152600401610d589392919061248b565b60405180910390fd5b610d6f84848484035f6112c5565b5b50505050565b5f73ffffffffffffffffffffffffffffffffffffffff168373ffffffffffffffffffffffffffffffffffffffff1603610de6575f6040517f96c6fd1e000000000000000000000000000000000000000000000000000000008152600401610ddd91906120bd565b60405180910390fd5b5f73ffffffffffffffffffffffffffffffffffffffff168273ffffffffffffffffffffffffffffffffffffffff1603610e56575f6040517fec442f05000000000000000000000000000000000000000000000000000000008152600401610e4d91906120bd565b60405180910390fd5b610e61838383611494565b505050565b5f7f000000000000000000000000000000000000000000000000000000000000000073ffffffffffffffffffffffffffffffffffffffff163073ffffffffffffffffffffffffffffffffffffffff16148015610ee157507f000000000000000000000000000000000000000000000000000000000000000046145b15610f0e577f00000000000000000000000000000000000000000000000000000000000000009050610f19565b610f166116ad565b90505b90565b610f24610ccb565b73ffffffffffffffffffffffffffffffffffffffff16610f42610923565b73ffffffffffffffffffffffffffffffffffffffff1614610fa157610f65610ccb565b6040517f118cdaa7000000000000000000000000000000000000000000000000000000008152600401610f9891906120bd565b60405180910390fd5b565b5f73ffffffffffffffffffffffffffffffffffffffff168273ffffffffffffffffffffffffffffffffffffffff1603611013575f6040517fec442f0500000000000000000000000000000000000000000000000000000000815260040161100a91906120bd565b60405180910390fd5b61101e5f8383611494565b5050565b5f73ffffffffffffffffffffffffffffffffffffffff168273ffffffffffffffffffffffffffffffffffffffff1603611092575f6040517f96c6fd1e00000000000000000000000000000000000000000000000000000000815260040161108991906120bd565b60405180910390fd5b61109d825f83611494565b5050565b5f90565b5f60055f9054906101000a900473ffffffffffffffffffffffffffffffffffffffff1690508160055f6101000a81548173ffffffffffffffffffffffffffffffffffffffff021916908373ffffffffffffffffffffffffffffffffffffffff1602179055508173ffffffffffffffffffffffffffffffffffffffff168173ffffffffffffffffffffffffffffffffffffffff167f8be0079c531659141344cd1fd0a4f28419497f9722a3daafe3b4186f6b6457e060405160405180910390a35050565b5f60085f8373ffffffffffffffffffffffffffffffffffffffff1673ffffffffffffffffffffffffffffffffffffffff1681526020019081526020015f20549050919050565b60606111e460067f000000000000000000000000000000000000000000000000000000000000000061174290919063ffffffff16565b905090565b606061121f60077f000000000000000000000000000000000000000000000000000000000000000061174290919063ffffffff16565b905090565b5f60085f8373ffffffffffffffffffffffffffffffffffffffff1673ffffffffffffffffffffffffffffffffffffffff1681526020019081526020015f205f815480929190600101919050559050919050565b5f611289611283610e66565b836117ef565b9050919050565b5f805f806112a08888888861182f565b9250925092506112b08282611916565b829350505050949350505050565b5f92915050565b5f73ffffffffffffffffffffffffffffffffffffffff168473ffffffffffffffffffffffffffffffffffffffff1603611335575f6040517fe602df0500000000000000000000000000000000000000000000000000000000815260040161132c91906120bd565b60405180910390fd5b5f73ffffffffffffffffffffffffffffffffffffffff168373ffffffffffffffffffffffffffffffffffffffff16036113a5575f6040517f94280d6200000000000000000000000000000000000000000000000000000000815260040161139c91906120bd565b60405180910390fd5b8160015f8673ffffffffffffffffffffffffffffffffffffffff1673ffffffffffffffffffffffffffffffffffffffff1681526020019081526020015f205f8573ffffffffffffffffffffffffffffffffffffffff1673ffffffffffffffffffffffffffffffffffffffff1681526020019081526020015f2081905550801561148e578273ffffffffffffffffffffffffffffffffffffffff168473ffffffffffffffffffffffffffffffffffffffff167f8c5be1e5ebec7d5bd14f71427d1e84f3dd0314c0f7b2291e5b200ac8c7c3b925846040516114859190611cf7565b60405180910390a35b50505050565b5f73ffffffffffffffffffffffffffffffffffffffff168373ffffffffffffffffffffffffffffffffffffffff16036114e4578060025f8282546114d89190612372565b925050819055506115b2565b5f805f8573ffffffffffffffffffffffffffffffffffffffff1673ffffffffffffffffffffffffffffffffffffffff1681526020019081526020015f205490508181101561156d578381836040517fe450d38c0000000000000000000000000000000000000000000000000000000081526004016115649392919061248b565b60405180910390fd5b8181035f808673ffffffffffffffffffffffffffffffffffffffff1673ffffffffffffffffffffffffffffffffffffffff1681526020019081526020015f2081905550505b5f73ffffffffffffffffffffffffffffffffffffffff168273ffffffffffffffffffffffffffffffffffffffff16036115f9578060025f8282540392505081905550611643565b805f808473ffffffffffffffffffffffffffffffffffffffff1673ffffffffffffffffffffffffffffffffffffffff1681526020019081526020015f205f82825401925050819055505b8173ffffffffffffffffffffffffffffffffffffffff168373ffffffffffffffffffffffffffffffffffffffff167fddf252ad1be2c89b69c2b068fc378daa952ba7f163c4a11628f55a4df523b3ef836040516116a09190611cf7565b60405180910390a3505050565b5f7f8b73c3c69bb8fe3d512ecc4cf759cc79239f7b179b0ffacaa9a75d522b39400f7f00000000000000000000000000000000000000000000000000000000000000007f000000000000000000000000000000000000000000000000000000000000000046306040516020016117279594939291906124c0565b60405160208183030381529060405280519060200120905090565b606060ff5f1b831461175e5761175783611a78565b90506117e9565b81805461176a90612232565b80601f016020809104026020016040519081016040528092919081815260200182805461179690612232565b80156117e15780601f106117b8576101008083540402835291602001916117e1565b820191905f5260205f20905b8154815290600101906020018083116117c457829003601f168201915b505050505090505b92915050565b5f6040517f190100000000000000000000000000000000000000000000000000000000000081528360028201528260228201526042812091505092915050565b5f805f7f7fffffffffffffffffffffffffffffff5d576e7357a4501ddfe92f46681b20a0845f1c111561186b575f60038592509250925061190c565b5f6001888888886040515f815260200160405260405161188e9493929190612511565b6020604051602081039080840390855afa1580156118ae573d5f803e3d5ffd5b5050506020604051035190505f73ffffffffffffffffffffffffffffffffffffffff168173ffffffffffffffffffffffffffffffffffffffff16036118ff575f60015f801b9350935093505061190c565b805f805f1b935093509350505b9450945094915050565b5f600381111561192957611928612554565b5b82600381111561193c5761193b612554565b5b0315611a74576001600381111561195657611955612554565b5b82600381111561196957611968612554565b5b036119a0576040517ff645eedf00000000000000000000000000000000000000000000000000000000815260040160405180910390fd5b600260038111156119b4576119b3612554565b5b8260038111156119c7576119c6612554565b5b03611a0b57805f1c6040517ffce698f7000000000000000000000000000000000000000000000000000000008152600401611a029190611cf7565b60405180910390fd5b600380811115611a1e57611a1d612554565b5b826003811115611a3157611a30612554565b5b03611a7357806040517fd78bce0c000000000000000000000000000000000000000000000000000000008152600401611a6a9190611dac565b60405180910390fd5b5b5050565b60605f611a8483611aea565b90505f602067ffffffffffffffff811115611aa257611aa16123d8565b5b6040519080825280601f01601f191660200182016040528015611ad45781602001600182028036833780820191505090505b5090508181528360208201528092505050919050565b5f8060ff835f1c169050601f811115611b2f576040517fb3512b0c00000000000000000000000000000000000000000000000000000000815260040160405180910390fd5b80915050919050565b5f81519050919050565b5f82825260208201905092915050565b5f5b83811015611b6f578082015181840152602081019050611b54565b5f8484015250505050565b5f601f19601f8301169050919050565b5f611b9482611b38565b611b9e8185611b42565b9350611bae818560208601611b52565b611bb781611b7a565b840191505092915050565b5f6020820190508181035f830152611bda8184611b8a565b905092915050565b5f80fd5b5f80fd5b5f73ffffffffffffffffffffffffffffffffffffffff82169050919050565b5f611c1382611bea565b9050919050565b611c2381611c09565b8114611c2d575f80fd5b50565b5f81359050611c3e81611c1a565b92915050565b5f819050919050565b611c5681611c44565b8114611c60575f80fd5b50565b5f81359050611c7181611c4d565b92915050565b5f8060408385031215611c8d57611c8c611be2565b5b5f611c9a85828601611c30565b9250506020611cab85828601611c63565b9150509250929050565b5f8115159050919050565b611cc981611cb5565b82525050565b5f602082019050611ce25f830184611cc0565b92915050565b611cf181611c44565b82525050565b5f602082019050611d0a5f830184611ce8565b92915050565b5f805f60608486031215611d2757611d26611be2565b5b5f611d3486828701611c30565b9350506020611d4586828701611c30565b9250506040611d5686828701611c63565b9150509250925092565b5f60ff82169050919050565b611d7581611d60565b82525050565b5f602082019050611d8e5f830184611d6c565b92915050565b5f819050919050565b611da681611d94565b82525050565b5f602082019050611dbf5f830184611d9d565b92915050565b5f60208284031215611dda57611dd9611be2565b5b5f611de784828501611c63565b91505092915050565b5f611dfa82611c09565b9050919050565b611e0a81611df0565b8114611e14575f80fd5b50565b5f81359050611e2581611e01565b92915050565b5f80fd5b5f80fd5b5f80fd5b5f8083601f840112611e4c57611e4b611e2b565b5b8235905067ffffffffffffffff811115611e6957611e68611e2f565b5b602083019150836001820283011115611e8557611e84611e33565b5b9250929050565b5f805f805f60808688031215611ea557611ea4611be2565b5b5f611eb288828901611e17565b9550506020611ec388828901611c30565b9450506040611ed488828901611c63565b935050606086013567ffffffffffffffff811115611ef557611ef4611be6565b5b611f0188828901611e37565b92509250509295509295909350565b5f60208284031215611f2557611f24611be2565b5b5f611f3284828501611c30565b91505092915050565b5f7fff0000000000000000000000000000000000000000000000000000000000000082169050919050565b611f6f81611f3b565b82525050565b611f7e81611c09565b82525050565b5f81519050919050565b5f82825260208201905092915050565b5f819050602082019050919050565b611fb681611c44565b82525050565b5f611fc78383611fad565b60208301905092915050565b5f602082019050919050565b5f611fe982611f84565b611ff38185611f8e565b9350611ffe83611f9e565b805f5b8381101561202e5781516120158882611fbc565b975061202083611fd3565b925050600181019050612001565b5085935050505092915050565b5f60e08201905061204e5f83018a611f66565b81810360208301526120608189611b8a565b905081810360408301526120748188611b8a565b90506120836060830187611ce8565b6120906080830186611f75565b61209d60a0830185611d9d565b81810360c08301526120af8184611fdf565b905098975050505050505050565b5f6020820190506120d05f830184611f75565b92915050565b6120df81611d60565b81146120e9575f80fd5b50565b5f813590506120fa816120d6565b92915050565b61210981611d94565b8114612113575f80fd5b50565b5f8135905061212481612100565b92915050565b5f805f805f805f60e0888a03121561214557612144611be2565b5b5f6121528a828b01611c30565b97505060206121638a828b01611c30565b96505060406121748a828b01611c63565b95505060606121858a828b01611c63565b94505060806121968a828b016120ec565b93505060a06121a78a828b01612116565b92505060c06121b88a828b01612116565b91505092959891949750929550565b5f80604083850312156121dd576121dc611be2565b5b5f6121ea85828601611c30565b92505060206121fb85828601611c30565b9150509250929050565b7f4e487b71000000000000000000000000000000000000000000000000000000005f52602260045260245ffd5b5f600282049050600182168061224957607f821691505b60208210810361225c5761225b612205565b5b50919050565b5f82825260208201905092915050565b828183375f83830152505050565b5f61228b8385612262565b9350612298838584612272565b6122a183611b7a565b840190509392505050565b5f60a0820190506122bf5f830189611f75565b6122cc6020830188611f75565b6122d96040830187611ce8565b6122e66060830186611ce8565b81810360808301526122f9818486612280565b9050979650505050505050565b5f8151905061231481612100565b92915050565b5f6020828403121561232f5761232e611be2565b5b5f61233c84828501612306565b91505092915050565b7f4e487b71000000000000000000000000000000000000000000000000000000005f52601160045260245ffd5b5f61237c82611c44565b915061238783611c44565b925082820190508082111561239f5761239e612345565b5b92915050565b5f6123af82611c44565b91506123ba83611c44565b92508282039050818111156123d2576123d1612345565b5b92915050565b7f4e487b71000000000000000000000000000000000000000000000000000000005f52604160045260245ffd5b5f60c0820190506124185f830189611d9d565b6124256020830188611f75565b6124326040830187611f75565b61243f6060830186611ce8565b61244c6080830185611ce8565b61245960a0830184611ce8565b979650505050505050565b5f6040820190506124775f830185611f75565b6124846020830184611f75565b9392505050565b5f60608201905061249e5f830186611f75565b6124ab6020830185611ce8565b6124b86040830184611ce8565b949350505050565b5f60a0820190506124d35f830188611d9d565b6124e06020830187611d9d565b6124ed6040830186611d9d565b6124fa6060830185611ce8565b6125076080830184611f75565b9695505050505050565b5f6080820190506125245f830187611d9d565b6125316020830186611d6c565b61253e6040830185611d9d565b61254b6060830184611d9d565b95945050505050565b7f4e487b71000000000000000000000000000000000000000000000000000000005f52602160045260245ffdfea26469706673582212208a52f3182279959ca88fcdeb3340d76ab9044869d36cfa00be9994688844202564736f6c63430008160033",
    "deployedBytecode": "0x608060405234801561001057600080fd5b50600436106100a95760003560e01c80633950935111610071578063395093511461016857806370a082311461019857806395d89b41146101c8578063a457c2d7146101e6578063a9059cbb14610216578063dd62ed3e14610246576100a9565b806306fdde03146100ae578063095ea7b3146100cc57806318160ddd146100fc57806323b872dd1461011a578063313ce5671461014a575b600080fd5b6100b6610276565b6040516100c39190610f6f565b60405180910390f35b6100e660048036038101906100e19190610dae565b610308565b6040516100f39190610f54565b60405180910390f35b61010461032b565b60405161011191906110d1565b60405180910390f35b610134600480360381019061012f9190610d5f565b610335565b6040516101419190610f54565b60405180910390f35b610152610364565b60405161015f91906110ec565b60405180910390f35b610182600480360381019061017d9190610dae565b61036d565b60405161018f9190610f54565b60405180910390f35b6101b260048036038101906101ad9190610cfa565b610417565b6040516101bf91906110d1565b60405180910390f35b6101d061045f565b6040516101dd9190610f6f565b60405180910390f35b61020060048036038101906101fb9190610dae565b6104f1565b60405161020d9190610f54565b60405180910390f35b610230600480360381019061022b9190610dae565b6105db565b60405161023d9190610f54565b60405180910390f35b610260600480360381019061025b9190610d23565b6105fe565b60405161026d91906110d1565b60405180910390f35b60606003805461028590611201565b80601f01602080910402602001604051908101604052809291908181526020018280546102b190611201565b80156102fe5780601f106102d3576101008083540402835291602001916102fe565b820191906000526020600020905b8154815290600101906020018083116102e157829003601f168201915b5050505050905090565b6000806103136107bd565b90506103208185856107c5565b600191505092915050565b6000600254905090565b6000806103406107bd565b905061034d858285610990565b610358858585610a1c565b60019150509392505050565b60006012905090565b6000806103786107bd565b905061040c818585600160008673ffffffffffffffffffffffffffffffffffffffff1673ffffffffffffffffffffffffffffffffffffffff16815260200190815260200160002060008973ffffffffffffffffffffffffffffffffffffffff1673ffffffffffffffffffffffffffffffffffffffff168152602001908152602001600020546104079190611123565b6107c5565b600191505092915050565b60008060008373ffffffffffffffffffffffffffffffffffffffff1673ffffffffffffffffffffffffffffffffffffffff168152602001908152602001600020549050919050565b60606004805461046e90611201565b80601f016020809104026020016040519081016040528092919081815260200182805461049a90611201565b80156104e75780601f106104bc576101008083540402835291602001916104e7565b820191906000526020600020905b8154815290600101906020018083116104ca57829003601f168201915b5050505050905090565b6000806104fc6107bd565b90506000600160008373ffffffffffffffffffffffffffffffffffffffff1673ffffffffffffffffffffffffffffffffffffffff16815260200190815260200160002060008673ffffffffffffffffffffffffffffffffffffffff1673ffffffffffffffffffffffffffffffffffffffff168152602001908152602001600020549050838110156105c2576040517f08c379a00000000000000000000000000000000000000000000000000000000081526004016105b9906110b1565b60405180910390fd5b6105cf82868684036107c5565b60019250505092915050565b6000806105e66107bd565b90506105f3818585610a1c565b600191505092915050565b6000600160008473ffffffffffffffffffffffffffffffffffffffff1673ffffffffffffffffffffffffffffffffffffffff16815260200190815260200160002060008373ffffffffffffffffffffffffffffffffffffffff1673ffffffffffffffffffffffffffffffffffffffff16815260200190815260200160002054905092915050565b61071d828260405160240161069b929190610fc1565b6040516020818303038152906040527f9710a9d0000000000000000000000000000000000000000000000000000000007bffffffffffffffffffffffffffffffffffffffffffffffffffffffff19166020820180517bffffffffffffffffffffffffffffffffffffffffffffffffffffffff8381831617835250505050610c9d565b5050565b6107b98282604051602401610737929190610f91565b6040516020818303038152906040527f319af333000000000000000000000000000000000000000000000000000000007bffffffffffffffffffffffffffffffffffffffffffffffffffffffff19166020820180517bffffffffffffffffffffffffffffffffffffffffffffffffffffffff8381831617835250505050610c9d565b5050565b600033905090565b600073ffffffffffffffffffffffffffffffffffffffff168373ffffffffffffffffffffffffffffffffffffffff161415610835576040517f08c379a000000000000000000000000000000000000000000000000000000000815260040161082c90611091565b60405180910390fd5b600073ffffffffffffffffffffffffffffffffffffffff168273ffffffffffffffffffffffffffffffffffffffff1614156108a5576040517f08c379a000000000000000000000000000000000000000000000000000000000815260040161089c90611011565b60405180910390fd5b80600160008573ffffffffffffffffffffffffffffffffffffffff1673ffffffffffffffffffffffffffffffffffffffff16815260200190815260200160002060008473ffffffffffffffffffffffffffffffffffffffff1673ffffffffffffffffffffffffffffffffffffffff168152602001908152602001600020819055508173ffffffffffffffffffffffffffffffffffffffff168373ffffffffffffffffffffffffffffffffffffffff167f8c5be1e5ebec7d5bd14f71427d1e84f3dd0314c0f7b2291e5b200ac8c7c3b9258360405161098391906110d1565b60405180910390a3505050565b600061099c84846105fe565b90507fffffffffffffffffffffffffffffffffffffffffffffffffffffffffffffffff8114610a165781811015610a08576040517f08c379a00000000000000000000000000000000000000000000000000000000081526004016109ff90611031565b60405180910390fd5b610a1584848484036107c5565b5b50505050565b600073ffffffffffffffffffffffffffffffffffffffff168373ffffffffffffffffffffffffffffffffffffffff161415610a8c576040517f08c379a0000000000000000000000000000000000000000000000000000000008152600401610a8390611071565b60405180910390fd5b600073ffffffffffffffffffffffffffffffffffffffff168273ffffffffffffffffffffffffffffffffffffffff161415610afc576040517f08c379a0000000000000000000000000000000000000000000000000000000008152600401610af390610ff1565b60405180910390fd5b610b07838383610cc6565b60008060008573ffffffffffffffffffffffffffffffffffffffff1673ffffffffffffffffffffffffffffffffffffffff16815260200190815260200160002054905081811015610b8d576040517f08c379a0000000000000000000000000000000000000000000000000000000008152600401610b8490611051565b60405180910390fd5b8181036000808673ffffffffffffffffffffffffffffffffffffffff1673ffffffffffffffffffffffffffffffffffffffff16815260200190815260200160002081905550816000808573ffffffffffffffffffffffffffffffffffffffff1673ffffffffffffffffffffffffffffffffffffffff1681526020019081526020016000206000828254610c209190611123565b925050819055508273ffffffffffffffffffffffffffffffffffffffff168473ffffffffffffffffffffffffffffffffffffffff167fddf252ad1be2c89b69c2b068fc378daa952ba7f163c4a11628f55a4df523b3ef84604051610c8491906110d1565b60405180910390a3610c97848484610ccb565b50505050565b60008151905060006a636f6e736f6c652e6c6f679050602083016000808483855afa5050505050565b505050565b505050565b600081359050610cdf816114a5565b92915050565b600081359050610cf4816114bc565b92915050565b600060208284031215610d0c57600080fd5b6000610d1a84828501610cd0565b91505092915050565b60008060408385031215610d3657600080fd5b6000610d4485828601610cd0565b9250506020610d5585828601610cd0565b9150509250929050565b600080600060608486031215610d7457600080fd5b6000610d8286828701610cd0565b9350506020610d9386828701610cd0565b9250506040610da486828701610ce5565b9150509250925092565b60008060408385031215610dc157600080fd5b6000610dcf85828601610cd0565b9250506020610de085828601610ce5565b9150509250929050565b610df381611179565b82525050565b610e028161118b565b82525050565b6000610e1382611107565b610e1d8185611112565b9350610e2d8185602086016111ce565b610e3681611291565b840191505092915050565b6000610e4e602383611112565b9150610e59826112a2565b604082019050919050565b6000610e71602283611112565b9150610e7c826112f1565b604082019050919050565b6000610e94601d83611112565b9150610e9f82611340565b602082019050919050565b6000610eb7602683611112565b9150610ec282611369565b604082019050919050565b6000610eda602583611112565b9150610ee5826113b8565b604082019050919050565b6000610efd602483611112565b9150610f0882611407565b604082019050919050565b6000610f20602583611112565b9150610f2b82611456565b604082019050919050565b610f3f816111b7565b82525050565b610f4e816111c1565b82525050565b6000602082019050610f696000830184610df9565b92915050565b60006020820190508181036000830152610f898184610e08565b905092915050565b60006040820190508181036000830152610fab8185610e08565b9050610fba6020830184610dea565b9392505050565b60006040820190508181036000830152610fdb8185610e08565b9050610fea6020830184610f36565b9392505050565b6000602082019050818103600083015261100a81610e41565b9050919050565b6000602082019050818103600083015261102a81610e64565b9050919050565b6000602082019050818103600083015261104a81610e87565b9050919050565b6000602082019050818103600083015261106a81610eaa565b9050919050565b6000602082019050818103600083015261108a81610ecd565b9050919050565b600060208201905081810360008301526110aa81610ef0565b9050919050565b600060208201905081810360008301526110ca81610f13565b9050919050565b60006020820190506110e66000830184610f36565b92915050565b60006020820190506111016000830184610f45565b92915050565b600081519050919050565b600082825260208201905092915050565b600061112e826111b7565b9150611139836111b7565b9250827fffffffffffffffffffffffffffffffffffffffffffffffffffffffffffffffff0382111561116e5761116d611233565b5b828201905092915050565b600061118482611197565b9050919050565b60008115159050919050565b600073ffffffffffffffffffffffffffffffffffffffff82169050919050565b6000819050919050565b600060ff82169050919050565b60005b838110156111ec5780820151818401526020810190506111d1565b838111156111fb576000848401525b50505050565b6000600282049050600182168061121957607f821691505b6020821081141561122d5761122c611262565b5b50919050565b7f4e487b7100000000000000000000000000000000000000000000000000000000600052601160045260246000fd5b7f4e487b7100000000000000000000000000000000000000000000000000000000600052602260045260246000fd5b6000601f19601f8301169050919050565b7f45524332303a207472616e7366657220746f20746865207a65726f206164647260008201527f6573730000000000000000000000000000000000000000000000000000000000602082015250565b7f45524332303a20617070726f766520746f20746865207a65726f20616464726560008201527f7373000000000000000000000000000000000000000000000000000000000000602082015250565b7f45524332303a20696e73756666696369656e7420616c6c6f77616e6365000000600082015250565b7f45524332303a207472616e7366657220616d6f756e742065786365656473206260008201527f616c616e63650000000000000000000000000000000000000000000000000000602082015250565b7f45524332303a207472616e736665722066726f6d20746865207a65726f20616460008201527f6472657373000000000000000000000000000000000000000000000000000000602082015250565b7f45524332303a20617070726f76652066726f6d20746865207a65726f2061646460008201527f7265737300000000000000000000000000000000000000000000000000000000602082015250565b7f45524332303a2064656372656173656420616c6c6f77616e63652062656c6f7760008201527f207a65726f000000000000000000000000000000000000000000000000000000602082015250565b6114ae81611179565b81146114b957600080fd5b50565b6114c5816111b7565b81146114d057600080fd5b5056fea2646970667358221220d64f0f85ed813ab09f6725f12cc3cfe613bb2b8ca3670dd4fb5067053c4e07f064736f6c63430008040033",
    "linkReferences": {},
    "deployedLinkReferences": {}
}