{
	"locketh.sol": {
		"ETHTransfer": {
			"abi": [
				{
					"inputs": [],
					"stateMutability": "nonpayable",
					"type": "constructor"
				},
				{
					"anonymous": false,
					"inputs": [
						{
							"indexed": false,
							"internalType": "address",
							"name": "sender",
							"type": "address"
						},
						{
							"indexed": false,
							"internalType": "uint256",
							"name": "amount",
							"type": "uint256"
						}
					],
					"name": "Received",
					"type": "event"
				},
				{
					"inputs": [],
					"name": "getContractBalance",
					"outputs": [
						{
							"internalType": "uint256",
							"name": "",
							"type": "uint256"
						}
					],
					"stateMutability": "view",
					"type": "function"
				},
				{
					"inputs": [],
					"name": "owner",
					"outputs": [
						{
							"internalType": "address",
							"name": "",
							"type": "address"
						}
					],
					"stateMutability": "view",
					"type": "function"
				},
				{
					"inputs": [
						{
							"internalType": "address payable",
							"name": "recipient",
							"type": "address"
						},
						{
							"internalType": "uint256",
							"name": "amount",
							"type": "uint256"
						}
					],
					"name": "sendETH",
					"outputs": [],
					"stateMutability": "nonpayable",
					"type": "function"
				},
				{
					"inputs": [
						{
							"internalType": "address payable",
							"name": "receiver",
							"type": "address"
						},
						{
							"internalType": "uint256",
							"name": "amount",
							"type": "uint256"
						}
					],
					"name": "withdraw",
					"outputs": [],
					"stateMutability": "nonpayable",
					"type": "function"
				},
				{
					"inputs": [],
					"name": "withdrawAll",
					"outputs": [],
					"stateMutability": "nonpayable",
					"type": "function"
				},
				{
					"inputs": [
						{
							"internalType": "contract IERC20",
							"name": "token",
							"type": "address"
						}
					],
					"name": "withdrawERC20",
					"outputs": [],
					"stateMutability": "nonpayable",
					"type": "function"
				},
				{
					"stateMutability": "payable",
					"type": "receive"
				}
			],
			"devdoc": {
				"kind": "dev",
				"methods": {},
				"version": 1
			},
			"evm": {
				"assembly": "    /* \"locketh.sol\":273:1768  contract ETHTransfer {... */\n  mstore(0x40, 0x80)\n    /* \"locketh.sol\":482:533  constructor()   {... */\n  callvalue\n  dup1\n  iszero\n  tag_1\n  jumpi\n  0x00\n  dup1\n  revert\ntag_1:\n  pop\n    /* \"locketh.sol\":516:526  msg.sender */\n  caller\n    /* \"locketh.sol\":508:513  owner */\n  0x00\n  dup1\n    /* \"locketh.sol\":508:526  owner = msg.sender */\n  0x0100\n  exp\n  dup2\n  sload\n  dup2\n  0xffffffffffffffffffffffffffffffffffffffff\n  mul\n  not\n  and\n  swap1\n  dup4\n  0xffffffffffffffffffffffffffffffffffffffff\n  and\n  mul\n  or\n  swap1\n  sstore\n  pop\n    /* \"locketh.sol\":273:1768  contract ETHTransfer {... */\n  dataSize(sub_0)\n  dup1\n  dataOffset(sub_0)\n  0x00\n  codecopy\n  0x00\n  return\nstop\n\nsub_0: assembly {\n        /* \"locketh.sol\":273:1768  contract ETHTransfer {... */\n      mstore(0x40, 0x80)\n      jumpi(tag_1, lt(calldatasize, 0x04))\n      shr(0xe0, calldataload(0x00))\n      dup1\n      0x64a197f3\n      eq\n      tag_3\n      jumpi\n      dup1\n      0x6f9fb98a\n      eq\n      tag_4\n      jumpi\n      dup1\n      0x853828b6\n      eq\n      tag_5\n      jumpi\n      dup1\n      0x8da5cb5b\n      eq\n      tag_6\n      jumpi\n      dup1\n      0xf3fef3a3\n      eq\n      tag_7\n      jumpi\n      dup1\n      0xf4f3b200\n      eq\n      tag_8\n      jumpi\n      jump(tag_2)\n    tag_1:\n      jumpi(tag_2, calldatasize)\n        /* \"locketh.sol\":597:598  0 */\n      0x00\n        /* \"locketh.sol\":585:594  msg.value */\n      callvalue\n        /* \"locketh.sol\":585:598  msg.value > 0 */\n      gt\n        /* \"locketh.sol\":577:616  require(msg.value > 0, \"Must send ETH\") */\n      tag_11\n      jumpi\n      mload(0x40)\n      0x08c379a000000000000000000000000000000000000000000000000000000000\n      dup2\n      mstore\n      0x04\n      add\n      tag_12\n      swap1\n      tag_13\n      jump\t// in\n    tag_12:\n      mload(0x40)\n      dup1\n      swap2\n      sub\n      swap1\n      revert\n    tag_11:\n        /* \"locketh.sol\":631:662  Received(msg.sender, msg.value) */\n      0x88a5966d370b9919b20f3e2c13ff65706f196a4e32cc2c12bf57088f88525874\n        /* \"locketh.sol\":640:650  msg.sender */\n      caller\n        /* \"locketh.sol\":652:661  msg.value */\n      callvalue\n        /* \"locketh.sol\":631:662  Received(msg.sender, msg.value) */\n      mload(0x40)\n      tag_14\n      swap3\n      swap2\n      swap1\n      tag_15\n      jump\t// in\n    tag_14:\n      mload(0x40)\n      dup1\n      swap2\n      sub\n      swap1\n      log1\n        /* \"locketh.sol\":273:1768  contract ETHTransfer {... */\n      stop\n    tag_2:\n      0x00\n      dup1\n      revert\n        /* \"locketh.sol\":729:930  function sendETH(address payable recipient, uint256 amount) public onlyOwner {... */\n    tag_3:\n      callvalue\n      dup1\n      iszero\n      tag_16\n      jumpi\n      0x00\n      dup1\n      revert\n    tag_16:\n      pop\n      tag_17\n      0x04\n      dup1\n      calldatasize\n      sub\n      dup2\n      add\n      swap1\n      tag_18\n      swap2\n      swap1\n      tag_19\n      jump\t// in\n    tag_18:\n      tag_20\n      jump\t// in\n    tag_17:\n      stop\n        /* \"locketh.sol\":1209:1314  function getContractBalance() public view returns (uint256) {... */\n    tag_4:\n      callvalue\n      dup1\n      iszero\n      tag_21\n      jumpi\n      0x00\n      dup1\n      revert\n    tag_21:\n      pop\n      tag_22\n      tag_23\n      jump\t// in\n    tag_22:\n      mload(0x40)\n      tag_24\n      swap2\n      swap1\n      tag_25\n      jump\t// in\n    tag_24:\n      mload(0x40)\n      dup1\n      swap2\n      sub\n      swap1\n      return\n        /* \"locketh.sol\":1374:1477  function withdrawAll() public onlyOwner {... */\n    tag_5:\n      callvalue\n      dup1\n      iszero\n      tag_26\n      jumpi\n      0x00\n      dup1\n      revert\n    tag_26:\n      pop\n      tag_27\n      tag_28\n      jump\t// in\n    tag_27:\n      stop\n        /* \"locketh.sol\":300:320  address public owner */\n    tag_6:\n      callvalue\n      dup1\n      iszero\n      tag_29\n      jumpi\n      0x00\n      dup1\n      revert\n    tag_29:\n      pop\n      tag_30\n      tag_31\n      jump\t// in\n    tag_30:\n      mload(0x40)\n      tag_32\n      swap2\n      swap1\n      tag_33\n      jump\t// in\n    tag_32:\n      mload(0x40)\n      dup1\n      swap2\n      sub\n      swap1\n      return\n        /* \"locketh.sol\":1003:1203  function withdraw(address payable receiver, uint256 amount) public onlyOwner {... */\n    tag_7:\n      callvalue\n      dup1\n      iszero\n      tag_34\n      jumpi\n      0x00\n      dup1\n      revert\n    tag_34:\n      pop\n      tag_35\n      0x04\n      dup1\n      calldatasize\n      sub\n      dup2\n      add\n      swap1\n      tag_36\n      swap2\n      swap1\n      tag_19\n      jump\t// in\n    tag_36:\n      tag_37\n      jump\t// in\n    tag_35:\n      stop\n        /* \"locketh.sol\":1544:1765  function withdrawERC20(IERC20 token) public onlyOwner {... */\n    tag_8:\n      callvalue\n      dup1\n      iszero\n      tag_38\n      jumpi\n      0x00\n      dup1\n      revert\n    tag_38:\n      pop\n      tag_39\n      0x04\n      dup1\n      calldatasize\n      sub\n      dup2\n      add\n      swap1\n      tag_40\n      swap2\n      swap1\n      tag_41\n      jump\t// in\n    tag_40:\n      tag_42\n      jump\t// in\n    tag_39:\n      stop\n        /* \"locketh.sol\":729:930  function sendETH(address payable recipient, uint256 amount) public onlyOwner {... */\n    tag_20:\n        /* \"locketh.sol\":429:434  owner */\n      0x00\n      dup1\n      sload\n      swap1\n      0x0100\n      exp\n      swap1\n      div\n      0xffffffffffffffffffffffffffffffffffffffff\n      and\n        /* \"locketh.sol\":415:434  msg.sender == owner */\n      0xffffffffffffffffffffffffffffffffffffffff\n      and\n        /* \"locketh.sol\":415:425  msg.sender */\n      caller\n        /* \"locketh.sol\":415:434  msg.sender == owner */\n      0xffffffffffffffffffffffffffffffffffffffff\n      and\n      eq\n        /* \"locketh.sol\":407:458  require(msg.sender == owner, \"Caller is not owner\") */\n      tag_44\n      jumpi\n      mload(0x40)\n      0x08c379a000000000000000000000000000000000000000000000000000000000\n      dup2\n      mstore\n      0x04\n      add\n      tag_45\n      swap1\n      tag_46\n      jump\t// in\n    tag_45:\n      mload(0x40)\n      dup1\n      swap2\n      sub\n      swap1\n      revert\n    tag_44:\n        /* \"locketh.sol\":849:855  amount */\n      dup1\n        /* \"locketh.sol\":824:845  address(this).balance */\n      selfbalance\n        /* \"locketh.sol\":824:855  address(this).balance >= amount */\n      lt\n      iszero\n        /* \"locketh.sol\":816:887  require(address(this).balance >= amount, \"Not enough ETH in contract.\") */\n      tag_48\n      jumpi\n      mload(0x40)\n      0x08c379a000000000000000000000000000000000000000000000000000000000\n      dup2\n      mstore\n      0x04\n      add\n      tag_49\n      swap1\n      tag_50\n      jump\t// in\n    tag_49:\n      mload(0x40)\n      dup1\n      swap2\n      sub\n      swap1\n      revert\n    tag_48:\n        /* \"locketh.sol\":897:906  recipient */\n      dup2\n        /* \"locketh.sol\":897:915  recipient.transfer */\n      0xffffffffffffffffffffffffffffffffffffffff\n      and\n        /* \"locketh.sol\":897:923  recipient.transfer(amount) */\n      0x08fc\n        /* \"locketh.sol\":916:922  amount */\n      dup3\n        /* \"locketh.sol\":897:923  recipient.transfer(amount) */\n      swap1\n      dup2\n      iszero\n      mul\n      swap1\n      mload(0x40)\n      0x00\n      mload(0x40)\n      dup1\n      dup4\n      sub\n      dup2\n      dup6\n      dup9\n      dup9\n      call\n      swap4\n      pop\n      pop\n      pop\n      pop\n      iszero\n      dup1\n      iszero\n      tag_52\n      jumpi\n      returndatasize\n      0x00\n      dup1\n      returndatacopy\n      revert(0x00, returndatasize)\n    tag_52:\n      pop\n        /* \"locketh.sol\":729:930  function sendETH(address payable recipient, uint256 amount) public onlyOwner {... */\n      pop\n      pop\n      jump\t// out\n        /* \"locketh.sol\":1209:1314  function getContractBalance() public view returns (uint256) {... */\n    tag_23:\n        /* \"locketh.sol\":1260:1267  uint256 */\n      0x00\n        /* \"locketh.sol\":1286:1307  address(this).balance */\n      selfbalance\n        /* \"locketh.sol\":1279:1307  return address(this).balance */\n      swap1\n      pop\n        /* \"locketh.sol\":1209:1314  function getContractBalance() public view returns (uint256) {... */\n      swap1\n      jump\t// out\n        /* \"locketh.sol\":1374:1477  function withdrawAll() public onlyOwner {... */\n    tag_28:\n        /* \"locketh.sol\":429:434  owner */\n      0x00\n      dup1\n      sload\n      swap1\n      0x0100\n      exp\n      swap1\n      div\n      0xffffffffffffffffffffffffffffffffffffffff\n      and\n        /* \"locketh.sol\":415:434  msg.sender == owner */\n      0xffffffffffffffffffffffffffffffffffffffff\n      and\n        /* \"locketh.sol\":415:425  msg.sender */\n      caller\n        /* \"locketh.sol\":415:434  msg.sender == owner */\n      0xffffffffffffffffffffffffffffffffffffffff\n      and\n      eq\n        /* \"locketh.sol\":407:458  require(msg.sender == owner, \"Caller is not owner\") */\n      tag_55\n      jumpi\n      mload(0x40)\n      0x08c379a000000000000000000000000000000000000000000000000000000000\n      dup2\n      mstore\n      0x04\n      add\n      tag_56\n      swap1\n      tag_46\n      jump\t// in\n    tag_56:\n      mload(0x40)\n      dup1\n      swap2\n      sub\n      swap1\n      revert\n    tag_55:\n        /* \"locketh.sol\":1432:1437  owner */\n      0x00\n      dup1\n      sload\n      swap1\n      0x0100\n      exp\n      swap1\n      div\n      0xffffffffffffffffffffffffffffffffffffffff\n      and\n        /* \"locketh.sol\":1424:1447  payable(owner).transfer */\n      0xffffffffffffffffffffffffffffffffffffffff\n      and\n        /* \"locketh.sol\":1424:1470  payable(owner).transfer(address(this).balance) */\n      0x08fc\n        /* \"locketh.sol\":1448:1469  address(this).balance */\n      selfbalance\n        /* \"locketh.sol\":1424:1470  payable(owner).transfer(address(this).balance) */\n      swap1\n      dup2\n      iszero\n      mul\n      swap1\n      mload(0x40)\n      0x00\n      mload(0x40)\n      dup1\n      dup4\n      sub\n      dup2\n      dup6\n      dup9\n      dup9\n      call\n      swap4\n      pop\n      pop\n      pop\n      pop\n      iszero\n      dup1\n      iszero\n      tag_59\n      jumpi\n      returndatasize\n      0x00\n      dup1\n      returndatacopy\n      revert(0x00, returndatasize)\n    tag_59:\n      pop\n        /* \"locketh.sol\":1374:1477  function withdrawAll() public onlyOwner {... */\n      jump\t// out\n        /* \"locketh.sol\":300:320  address public owner */\n    tag_31:\n      0x00\n      dup1\n      sload\n      swap1\n      0x0100\n      exp\n      swap1\n      div\n      0xffffffffffffffffffffffffffffffffffffffff\n      and\n      dup2\n      jump\t// out\n        /* \"locketh.sol\":1003:1203  function withdraw(address payable receiver, uint256 amount) public onlyOwner {... */\n    tag_37:\n        /* \"locketh.sol\":429:434  owner */\n      0x00\n      dup1\n      sload\n      swap1\n      0x0100\n      exp\n      swap1\n      div\n      0xffffffffffffffffffffffffffffffffffffffff\n      and\n        /* \"locketh.sol\":415:434  msg.sender == owner */\n      0xffffffffffffffffffffffffffffffffffffffff\n      and\n        /* \"locketh.sol\":415:425  msg.sender */\n      caller\n        /* \"locketh.sol\":415:434  msg.sender == owner */\n      0xffffffffffffffffffffffffffffffffffffffff\n      and\n      eq\n        /* \"locketh.sol\":407:458  require(msg.sender == owner, \"Caller is not owner\") */\n      tag_61\n      jumpi\n      mload(0x40)\n      0x08c379a000000000000000000000000000000000000000000000000000000000\n      dup2\n      mstore\n      0x04\n      add\n      tag_62\n      swap1\n      tag_46\n      jump\t// in\n    tag_62:\n      mload(0x40)\n      dup1\n      swap2\n      sub\n      swap1\n      revert\n    tag_61:\n        /* \"locketh.sol\":1123:1129  amount */\n      dup1\n        /* \"locketh.sol\":1098:1119  address(this).balance */\n      selfbalance\n        /* \"locketh.sol\":1098:1129  address(this).balance >= amount */\n      lt\n      iszero\n        /* \"locketh.sol\":1090:1161  require(address(this).balance >= amount, \"Not enough ETH in contract.\") */\n      tag_64\n      jumpi\n      mload(0x40)\n      0x08c379a000000000000000000000000000000000000000000000000000000000\n      dup2\n      mstore\n      0x04\n      add\n      tag_65\n      swap1\n      tag_50\n      jump\t// in\n    tag_65:\n      mload(0x40)\n      dup1\n      swap2\n      sub\n      swap1\n      revert\n    tag_64:\n        /* \"locketh.sol\":1171:1179  receiver */\n      dup2\n        /* \"locketh.sol\":1171:1188  receiver.transfer */\n      0xffffffffffffffffffffffffffffffffffffffff\n      and\n        /* \"locketh.sol\":1171:1196  receiver.transfer(amount) */\n      0x08fc\n        /* \"locketh.sol\":1189:1195  amount */\n      dup3\n        /* \"locketh.sol\":1171:1196  receiver.transfer(amount) */\n      swap1\n      dup2\n      iszero\n      mul\n      swap1\n      mload(0x40)\n      0x00\n      mload(0x40)\n      dup1\n      dup4\n      sub\n      dup2\n      dup6\n      dup9\n      dup9\n      call\n      swap4\n      pop\n      pop\n      pop\n      pop\n      iszero\n      dup1\n      iszero\n      tag_67\n      jumpi\n      returndatasize\n      0x00\n      dup1\n      returndatacopy\n      revert(0x00, returndatasize)\n    tag_67:\n      pop\n        /* \"locketh.sol\":1003:1203  function withdraw(address payable receiver, uint256 amount) public onlyOwner {... */\n      pop\n      pop\n      jump\t// out\n        /* \"locketh.sol\":1544:1765  function withdrawERC20(IERC20 token) public onlyOwner {... */\n    tag_42:\n        /* \"locketh.sol\":429:434  owner */\n      0x00\n      dup1\n      sload\n      swap1\n      0x0100\n      exp\n      swap1\n      div\n      0xffffffffffffffffffffffffffffffffffffffff\n      and\n        /* \"locketh.sol\":415:434  msg.sender == owner */\n      0xffffffffffffffffffffffffffffffffffffffff\n      and\n        /* \"locketh.sol\":415:425  msg.sender */\n      caller\n        /* \"locketh.sol\":415:434  msg.sender == owner */\n      0xffffffffffffffffffffffffffffffffffffffff\n      and\n      eq\n        /* \"locketh.sol\":407:458  require(msg.sender == owner, \"Caller is not owner\") */\n      tag_69\n      jumpi\n      mload(0x40)\n      0x08c379a000000000000000000000000000000000000000000000000000000000\n      dup2\n      mstore\n      0x04\n      add\n      tag_70\n      swap1\n      tag_46\n      jump\t// in\n    tag_70:\n      mload(0x40)\n      dup1\n      swap2\n      sub\n      swap1\n      revert\n    tag_69:\n        /* \"locketh.sol\":1608:1623  uint256 balance */\n      0x00\n        /* \"locketh.sol\":1626:1631  token */\n      dup2\n        /* \"locketh.sol\":1626:1641  token.balanceOf */\n      0xffffffffffffffffffffffffffffffffffffffff\n      and\n      0x70a08231\n        /* \"locketh.sol\":1650:1654  this */\n      address\n        /* \"locketh.sol\":1626:1656  token.balanceOf(address(this)) */\n      mload(0x40)\n      dup3\n      0xffffffff\n      and\n      0xe0\n      shl\n      dup2\n      mstore\n      0x04\n      add\n      tag_72\n      swap2\n      swap1\n      tag_33\n      jump\t// in\n    tag_72:\n      0x20\n      mload(0x40)\n      dup1\n      dup4\n      sub\n      dup2\n      dup7\n      gas\n      staticcall\n      iszero\n      dup1\n      iszero\n      tag_74\n      jumpi\n      returndatasize\n      0x00\n      dup1\n      returndatacopy\n      revert(0x00, returndatasize)\n    tag_74:\n      pop\n      pop\n      pop\n      pop\n      mload(0x40)\n      returndatasize\n      not(0x1f)\n      0x1f\n      dup3\n      add\n      and\n      dup3\n      add\n      dup1\n      0x40\n      mstore\n      pop\n      dup2\n      add\n      swap1\n      tag_75\n      swap2\n      swap1\n      tag_76\n      jump\t// in\n    tag_75:\n        /* \"locketh.sol\":1608:1656  uint256 balance = token.balanceOf(address(this)) */\n      swap1\n      pop\n        /* \"locketh.sol\":1684:1685  0 */\n      0x00\n        /* \"locketh.sol\":1674:1681  balance */\n      dup2\n        /* \"locketh.sol\":1674:1685  balance > 0 */\n      gt\n        /* \"locketh.sol\":1666:1718  require(balance > 0, \"No ERC20 tokens to withdraw.\") */\n      tag_77\n      jumpi\n      mload(0x40)\n      0x08c379a000000000000000000000000000000000000000000000000000000000\n      dup2\n      mstore\n      0x04\n      add\n      tag_78\n      swap1\n      tag_79\n      jump\t// in\n    tag_78:\n      mload(0x40)\n      dup1\n      swap2\n      sub\n      swap1\n      revert\n    tag_77:\n        /* \"locketh.sol\":1728:1733  token */\n      dup2\n        /* \"locketh.sol\":1728:1742  token.transfer */\n      0xffffffffffffffffffffffffffffffffffffffff\n      and\n      0xa9059cbb\n        /* \"locketh.sol\":1743:1748  owner */\n      0x00\n      dup1\n      sload\n      swap1\n      0x0100\n      exp\n      swap1\n      div\n      0xffffffffffffffffffffffffffffffffffffffff\n      and\n        /* \"locketh.sol\":1750:1757  balance */\n      dup4\n        /* \"locketh.sol\":1728:1758  token.transfer(owner, balance) */\n      mload(0x40)\n      dup4\n      0xffffffff\n      and\n      0xe0\n      shl\n      dup2\n      mstore\n      0x04\n      add\n      tag_80\n      swap3\n      swap2\n      swap1\n      tag_15\n      jump\t// in\n    tag_80:\n      0x20\n      mload(0x40)\n      dup1\n      dup4\n      sub\n      dup2\n      0x00\n      dup8\n      gas\n      call\n      iszero\n      dup1\n      iszero\n      tag_82\n      jumpi\n      returndatasize\n      0x00\n      dup1\n      returndatacopy\n      revert(0x00, returndatasize)\n    tag_82:\n      pop\n      pop\n      pop\n      pop\n      mload(0x40)\n      returndatasize\n      not(0x1f)\n      0x1f\n      dup3\n      add\n      and\n      dup3\n      add\n      dup1\n      0x40\n      mstore\n      pop\n      dup2\n      add\n      swap1\n      tag_83\n      swap2\n      swap1\n      tag_84\n      jump\t// in\n    tag_83:\n      pop\n        /* \"locketh.sol\":1598:1765  {... */\n      pop\n        /* \"locketh.sol\":1544:1765  function withdrawERC20(IERC20 token) public onlyOwner {... */\n      pop\n      jump\t// out\n        /* \"#utility.yul\":7:176   */\n    tag_85:\n        /* \"#utility.yul\":91:102   */\n      0x00\n        /* \"#utility.yul\":125:131   */\n      dup3\n        /* \"#utility.yul\":120:123   */\n      dup3\n        /* \"#utility.yul\":113:132   */\n      mstore\n        /* \"#utility.yul\":165:169   */\n      0x20\n        /* \"#utility.yul\":160:163   */\n      dup3\n        /* \"#utility.yul\":156:170   */\n      add\n        /* \"#utility.yul\":141:170   */\n      swap1\n      pop\n        /* \"#utility.yul\":7:176   */\n      swap3\n      swap2\n      pop\n      pop\n      jump\t// out\n        /* \"#utility.yul\":182:345   */\n    tag_86:\n        /* \"#utility.yul\":322:337   */\n      0x4d7573742073656e642045544800000000000000000000000000000000000000\n        /* \"#utility.yul\":318:319   */\n      0x00\n        /* \"#utility.yul\":310:316   */\n      dup3\n        /* \"#utility.yul\":306:320   */\n      add\n        /* \"#utility.yul\":299:338   */\n      mstore\n        /* \"#utility.yul\":182:345   */\n      pop\n      jump\t// out\n        /* \"#utility.yul\":351:717   */\n    tag_87:\n        /* \"#utility.yul\":493:496   */\n      0x00\n        /* \"#utility.yul\":514:581   */\n      tag_118\n        /* \"#utility.yul\":578:580   */\n      0x0d\n        /* \"#utility.yul\":573:576   */\n      dup4\n        /* \"#utility.yul\":514:581   */\n      tag_85\n      jump\t// in\n    tag_118:\n        /* \"#utility.yul\":507:581   */\n      swap2\n      pop\n        /* \"#utility.yul\":590:683   */\n      tag_119\n        /* \"#utility.yul\":679:682   */\n      dup3\n        /* \"#utility.yul\":590:683   */\n      tag_86\n      jump\t// in\n    tag_119:\n        /* \"#utility.yul\":708:710   */\n      0x20\n        /* \"#utility.yul\":703:706   */\n      dup3\n        /* \"#utility.yul\":699:711   */\n      add\n        /* \"#utility.yul\":692:711   */\n      swap1\n      pop\n        /* \"#utility.yul\":351:717   */\n      swap2\n      swap1\n      pop\n      jump\t// out\n        /* \"#utility.yul\":723:1142   */\n    tag_13:\n        /* \"#utility.yul\":889:893   */\n      0x00\n        /* \"#utility.yul\":927:929   */\n      0x20\n        /* \"#utility.yul\":916:925   */\n      dup3\n        /* \"#utility.yul\":912:930   */\n      add\n        /* \"#utility.yul\":904:930   */\n      swap1\n      pop\n        /* \"#utility.yul\":976:985   */\n      dup2\n        /* \"#utility.yul\":970:974   */\n      dup2\n        /* \"#utility.yul\":966:986   */\n      sub\n        /* \"#utility.yul\":962:963   */\n      0x00\n        /* \"#utility.yul\":951:960   */\n      dup4\n        /* \"#utility.yul\":947:964   */\n      add\n        /* \"#utility.yul\":940:987   */\n      mstore\n        /* \"#utility.yul\":1004:1135   */\n      tag_121\n        /* \"#utility.yul\":1130:1134   */\n      dup2\n        /* \"#utility.yul\":1004:1135   */\n      tag_87\n      jump\t// in\n    tag_121:\n        /* \"#utility.yul\":996:1135   */\n      swap1\n      pop\n        /* \"#utility.yul\":723:1142   */\n      swap2\n      swap1\n      pop\n      jump\t// out\n        /* \"#utility.yul\":1148:1274   */\n    tag_88:\n        /* \"#utility.yul\":1185:1192   */\n      0x00\n        /* \"#utility.yul\":1225:1267   */\n      0xffffffffffffffffffffffffffffffffffffffff\n        /* \"#utility.yul\":1218:1223   */\n      dup3\n        /* \"#utility.yul\":1214:1268   */\n      and\n        /* \"#utility.yul\":1203:1268   */\n      swap1\n      pop\n        /* \"#utility.yul\":1148:1274   */\n      swap2\n      swap1\n      pop\n      jump\t// out\n        /* \"#utility.yul\":1280:1376   */\n    tag_89:\n        /* \"#utility.yul\":1317:1324   */\n      0x00\n        /* \"#utility.yul\":1346:1370   */\n      tag_124\n        /* \"#utility.yul\":1364:1369   */\n      dup3\n        /* \"#utility.yul\":1346:1370   */\n      tag_88\n      jump\t// in\n    tag_124:\n        /* \"#utility.yul\":1335:1370   */\n      swap1\n      pop\n        /* \"#utility.yul\":1280:1376   */\n      swap2\n      swap1\n      pop\n      jump\t// out\n        /* \"#utility.yul\":1382:1500   */\n    tag_90:\n        /* \"#utility.yul\":1469:1493   */\n      tag_126\n        /* \"#utility.yul\":1487:1492   */\n      dup2\n        /* \"#utility.yul\":1469:1493   */\n      tag_89\n      jump\t// in\n    tag_126:\n        /* \"#utility.yul\":1464:1467   */\n      dup3\n        /* \"#utility.yul\":1457:1494   */\n      mstore\n        /* \"#utility.yul\":1382:1500   */\n      pop\n      pop\n      jump\t// out\n        /* \"#utility.yul\":1506:1583   */\n    tag_91:\n        /* \"#utility.yul\":1543:1550   */\n      0x00\n        /* \"#utility.yul\":1572:1577   */\n      dup2\n        /* \"#utility.yul\":1561:1577   */\n      swap1\n      pop\n        /* \"#utility.yul\":1506:1583   */\n      swap2\n      swap1\n      pop\n      jump\t// out\n        /* \"#utility.yul\":1589:1707   */\n    tag_92:\n        /* \"#utility.yul\":1676:1700   */\n      tag_129\n        /* \"#utility.yul\":1694:1699   */\n      dup2\n        /* \"#utility.yul\":1676:1700   */\n      tag_91\n      jump\t// in\n    tag_129:\n        /* \"#utility.yul\":1671:1674   */\n      dup3\n        /* \"#utility.yul\":1664:1701   */\n      mstore\n        /* \"#utility.yul\":1589:1707   */\n      pop\n      pop\n      jump\t// out\n        /* \"#utility.yul\":1713:2045   */\n    tag_15:\n        /* \"#utility.yul\":1834:1838   */\n      0x00\n        /* \"#utility.yul\":1872:1874   */\n      0x40\n        /* \"#utility.yul\":1861:1870   */\n      dup3\n        /* \"#utility.yul\":1857:1875   */\n      add\n        /* \"#utility.yul\":1849:1875   */\n      swap1\n      pop\n        /* \"#utility.yul\":1885:1956   */\n      tag_131\n        /* \"#utility.yul\":1953:1954   */\n      0x00\n        /* \"#utility.yul\":1942:1951   */\n      dup4\n        /* \"#utility.yul\":1938:1955   */\n      add\n        /* \"#utility.yul\":1929:1935   */\n      dup6\n        /* \"#utility.yul\":1885:1956   */\n      tag_90\n      jump\t// in\n    tag_131:\n        /* \"#utility.yul\":1966:2038   */\n      tag_132\n        /* \"#utility.yul\":2034:2036   */\n      0x20\n        /* \"#utility.yul\":2023:2032   */\n      dup4\n        /* \"#utility.yul\":2019:2037   */\n      add\n        /* \"#utility.yul\":2010:2016   */\n      dup5\n        /* \"#utility.yul\":1966:2038   */\n      tag_92\n      jump\t// in\n    tag_132:\n        /* \"#utility.yul\":1713:2045   */\n      swap4\n      swap3\n      pop\n      pop\n      pop\n      jump\t// out\n        /* \"#utility.yul\":2132:2249   */\n    tag_94:\n        /* \"#utility.yul\":2241:2242   */\n      0x00\n        /* \"#utility.yul\":2238:2239   */\n      dup1\n        /* \"#utility.yul\":2231:2243   */\n      revert\n        /* \"#utility.yul\":2378:2482   */\n    tag_96:\n        /* \"#utility.yul\":2423:2430   */\n      0x00\n        /* \"#utility.yul\":2452:2476   */\n      tag_137\n        /* \"#utility.yul\":2470:2475   */\n      dup3\n        /* \"#utility.yul\":2452:2476   */\n      tag_88\n      jump\t// in\n    tag_137:\n        /* \"#utility.yul\":2441:2476   */\n      swap1\n      pop\n        /* \"#utility.yul\":2378:2482   */\n      swap2\n      swap1\n      pop\n      jump\t// out\n        /* \"#utility.yul\":2488:2626   */\n    tag_97:\n        /* \"#utility.yul\":2569:2601   */\n      tag_139\n        /* \"#utility.yul\":2595:2600   */\n      dup2\n        /* \"#utility.yul\":2569:2601   */\n      tag_96\n      jump\t// in\n    tag_139:\n        /* \"#utility.yul\":2562:2567   */\n      dup2\n        /* \"#utility.yul\":2559:2602   */\n      eq\n        /* \"#utility.yul\":2549:2620   */\n      tag_140\n      jumpi\n        /* \"#utility.yul\":2616:2617   */\n      0x00\n        /* \"#utility.yul\":2613:2614   */\n      dup1\n        /* \"#utility.yul\":2606:2618   */\n      revert\n        /* \"#utility.yul\":2549:2620   */\n    tag_140:\n        /* \"#utility.yul\":2488:2626   */\n      pop\n      jump\t// out\n        /* \"#utility.yul\":2632:2787   */\n    tag_98:\n        /* \"#utility.yul\":2686:2691   */\n      0x00\n        /* \"#utility.yul\":2724:2730   */\n      dup2\n        /* \"#utility.yul\":2711:2731   */\n      calldataload\n        /* \"#utility.yul\":2702:2731   */\n      swap1\n      pop\n        /* \"#utility.yul\":2740:2781   */\n      tag_142\n        /* \"#utility.yul\":2775:2780   */\n      dup2\n        /* \"#utility.yul\":2740:2781   */\n      tag_97\n      jump\t// in\n    tag_142:\n        /* \"#utility.yul\":2632:2787   */\n      swap3\n      swap2\n      pop\n      pop\n      jump\t// out\n        /* \"#utility.yul\":2793:2915   */\n    tag_99:\n        /* \"#utility.yul\":2866:2890   */\n      tag_144\n        /* \"#utility.yul\":2884:2889   */\n      dup2\n        /* \"#utility.yul\":2866:2890   */\n      tag_91\n      jump\t// in\n    tag_144:\n        /* \"#utility.yul\":2859:2864   */\n      dup2\n        /* \"#utility.yul\":2856:2891   */\n      eq\n        /* \"#utility.yul\":2846:2909   */\n      tag_145\n      jumpi\n        /* \"#utility.yul\":2905:2906   */\n      0x00\n        /* \"#utility.yul\":2902:2903   */\n      dup1\n        /* \"#utility.yul\":2895:2907   */\n      revert\n        /* \"#utility.yul\":2846:2909   */\n    tag_145:\n        /* \"#utility.yul\":2793:2915   */\n      pop\n      jump\t// out\n        /* \"#utility.yul\":2921:3060   */\n    tag_100:\n        /* \"#utility.yul\":2967:2972   */\n      0x00\n        /* \"#utility.yul\":3005:3011   */\n      dup2\n        /* \"#utility.yul\":2992:3012   */\n      calldataload\n        /* \"#utility.yul\":2983:3012   */\n      swap1\n      pop\n        /* \"#utility.yul\":3021:3054   */\n      tag_147\n        /* \"#utility.yul\":3048:3053   */\n      dup2\n        /* \"#utility.yul\":3021:3054   */\n      tag_99\n      jump\t// in\n    tag_147:\n        /* \"#utility.yul\":2921:3060   */\n      swap3\n      swap2\n      pop\n      pop\n      jump\t// out\n        /* \"#utility.yul\":3066:3556   */\n    tag_19:\n        /* \"#utility.yul\":3142:3148   */\n      0x00\n        /* \"#utility.yul\":3150:3156   */\n      dup1\n        /* \"#utility.yul\":3199:3201   */\n      0x40\n        /* \"#utility.yul\":3187:3196   */\n      dup4\n        /* \"#utility.yul\":3178:3185   */\n      dup6\n        /* \"#utility.yul\":3174:3197   */\n      sub\n        /* \"#utility.yul\":3170:3202   */\n      slt\n        /* \"#utility.yul\":3167:3286   */\n      iszero\n      tag_149\n      jumpi\n        /* \"#utility.yul\":3205:3284   */\n      tag_150\n      tag_94\n      jump\t// in\n    tag_150:\n        /* \"#utility.yul\":3167:3286   */\n    tag_149:\n        /* \"#utility.yul\":3325:3326   */\n      0x00\n        /* \"#utility.yul\":3350:3411   */\n      tag_151\n        /* \"#utility.yul\":3403:3410   */\n      dup6\n        /* \"#utility.yul\":3394:3400   */\n      dup3\n        /* \"#utility.yul\":3383:3392   */\n      dup7\n        /* \"#utility.yul\":3379:3401   */\n      add\n        /* \"#utility.yul\":3350:3411   */\n      tag_98\n      jump\t// in\n    tag_151:\n        /* \"#utility.yul\":3340:3411   */\n      swap3\n      pop\n        /* \"#utility.yul\":3296:3421   */\n      pop\n        /* \"#utility.yul\":3460:3462   */\n      0x20\n        /* \"#utility.yul\":3486:3539   */\n      tag_152\n        /* \"#utility.yul\":3531:3538   */\n      dup6\n        /* \"#utility.yul\":3522:3528   */\n      dup3\n        /* \"#utility.yul\":3511:3520   */\n      dup7\n        /* \"#utility.yul\":3507:3529   */\n      add\n        /* \"#utility.yul\":3486:3539   */\n      tag_100\n      jump\t// in\n    tag_152:\n        /* \"#utility.yul\":3476:3539   */\n      swap2\n      pop\n        /* \"#utility.yul\":3431:3549   */\n      pop\n        /* \"#utility.yul\":3066:3556   */\n      swap3\n      pop\n      swap3\n      swap1\n      pop\n      jump\t// out\n        /* \"#utility.yul\":3562:3784   */\n    tag_25:\n        /* \"#utility.yul\":3655:3659   */\n      0x00\n        /* \"#utility.yul\":3693:3695   */\n      0x20\n        /* \"#utility.yul\":3682:3691   */\n      dup3\n        /* \"#utility.yul\":3678:3696   */\n      add\n        /* \"#utility.yul\":3670:3696   */\n      swap1\n      pop\n        /* \"#utility.yul\":3706:3777   */\n      tag_154\n        /* \"#utility.yul\":3774:3775   */\n      0x00\n        /* \"#utility.yul\":3763:3772   */\n      dup4\n        /* \"#utility.yul\":3759:3776   */\n      add\n        /* \"#utility.yul\":3750:3756   */\n      dup5\n        /* \"#utility.yul\":3706:3777   */\n      tag_92\n      jump\t// in\n    tag_154:\n        /* \"#utility.yul\":3562:3784   */\n      swap3\n      swap2\n      pop\n      pop\n      jump\t// out\n        /* \"#utility.yul\":3790:4012   */\n    tag_33:\n        /* \"#utility.yul\":3883:3887   */\n      0x00\n        /* \"#utility.yul\":3921:3923   */\n      0x20\n        /* \"#utility.yul\":3910:3919   */\n      dup3\n        /* \"#utility.yul\":3906:3924   */\n      add\n        /* \"#utility.yul\":3898:3924   */\n      swap1\n      pop\n        /* \"#utility.yul\":3934:4005   */\n      tag_156\n        /* \"#utility.yul\":4002:4003   */\n      0x00\n        /* \"#utility.yul\":3991:4000   */\n      dup4\n        /* \"#utility.yul\":3987:4004   */\n      add\n        /* \"#utility.yul\":3978:3984   */\n      dup5\n        /* \"#utility.yul\":3934:4005   */\n      tag_90\n      jump\t// in\n    tag_156:\n        /* \"#utility.yul\":3790:4012   */\n      swap3\n      swap2\n      pop\n      pop\n      jump\t// out\n        /* \"#utility.yul\":4018:4127   */\n    tag_101:\n        /* \"#utility.yul\":4068:4075   */\n      0x00\n        /* \"#utility.yul\":4097:4121   */\n      tag_158\n        /* \"#utility.yul\":4115:4120   */\n      dup3\n        /* \"#utility.yul\":4097:4121   */\n      tag_89\n      jump\t// in\n    tag_158:\n        /* \"#utility.yul\":4086:4121   */\n      swap1\n      pop\n        /* \"#utility.yul\":4018:4127   */\n      swap2\n      swap1\n      pop\n      jump\t// out\n        /* \"#utility.yul\":4133:4281   */\n    tag_102:\n        /* \"#utility.yul\":4219:4256   */\n      tag_160\n        /* \"#utility.yul\":4250:4255   */\n      dup2\n        /* \"#utility.yul\":4219:4256   */\n      tag_101\n      jump\t// in\n    tag_160:\n        /* \"#utility.yul\":4212:4217   */\n      dup2\n        /* \"#utility.yul\":4209:4257   */\n      eq\n        /* \"#utility.yul\":4199:4275   */\n      tag_161\n      jumpi\n        /* \"#utility.yul\":4271:4272   */\n      0x00\n        /* \"#utility.yul\":4268:4269   */\n      dup1\n        /* \"#utility.yul\":4261:4273   */\n      revert\n        /* \"#utility.yul\":4199:4275   */\n    tag_161:\n        /* \"#utility.yul\":4133:4281   */\n      pop\n      jump\t// out\n        /* \"#utility.yul\":4287:4452   */\n    tag_103:\n        /* \"#utility.yul\":4346:4351   */\n      0x00\n        /* \"#utility.yul\":4384:4390   */\n      dup2\n        /* \"#utility.yul\":4371:4391   */\n      calldataload\n        /* \"#utility.yul\":4362:4391   */\n      swap1\n      pop\n        /* \"#utility.yul\":4400:4446   */\n      tag_163\n        /* \"#utility.yul\":4440:4445   */\n      dup2\n        /* \"#utility.yul\":4400:4446   */\n      tag_102\n      jump\t// in\n    tag_163:\n        /* \"#utility.yul\":4287:4452   */\n      swap3\n      swap2\n      pop\n      pop\n      jump\t// out\n        /* \"#utility.yul\":4458:4813   */\n    tag_41:\n        /* \"#utility.yul\":4530:4536   */\n      0x00\n        /* \"#utility.yul\":4579:4581   */\n      0x20\n        /* \"#utility.yul\":4567:4576   */\n      dup3\n        /* \"#utility.yul\":4558:4565   */\n      dup5\n        /* \"#utility.yul\":4554:4577   */\n      sub\n        /* \"#utility.yul\":4550:4582   */\n      slt\n        /* \"#utility.yul\":4547:4666   */\n      iszero\n      tag_165\n      jumpi\n        /* \"#utility.yul\":4585:4664   */\n      tag_166\n      tag_94\n      jump\t// in\n    tag_166:\n        /* \"#utility.yul\":4547:4666   */\n    tag_165:\n        /* \"#utility.yul\":4705:4706   */\n      0x00\n        /* \"#utility.yul\":4730:4796   */\n      tag_167\n        /* \"#utility.yul\":4788:4795   */\n      dup5\n        /* \"#utility.yul\":4779:4785   */\n      dup3\n        /* \"#utility.yul\":4768:4777   */\n      dup6\n        /* \"#utility.yul\":4764:4786   */\n      add\n        /* \"#utility.yul\":4730:4796   */\n      tag_103\n      jump\t// in\n    tag_167:\n        /* \"#utility.yul\":4720:4796   */\n      swap2\n      pop\n        /* \"#utility.yul\":4676:4806   */\n      pop\n        /* \"#utility.yul\":4458:4813   */\n      swap3\n      swap2\n      pop\n      pop\n      jump\t// out\n        /* \"#utility.yul\":4819:4988   */\n    tag_104:\n        /* \"#utility.yul\":4959:4980   */\n      0x43616c6c6572206973206e6f74206f776e657200000000000000000000000000\n        /* \"#utility.yul\":4955:4956   */\n      0x00\n        /* \"#utility.yul\":4947:4953   */\n      dup3\n        /* \"#utility.yul\":4943:4957   */\n      add\n        /* \"#utility.yul\":4936:4981   */\n      mstore\n        /* \"#utility.yul\":4819:4988   */\n      pop\n      jump\t// out\n        /* \"#utility.yul\":4994:5360   */\n    tag_105:\n        /* \"#utility.yul\":5136:5139   */\n      0x00\n        /* \"#utility.yul\":5157:5224   */\n      tag_170\n        /* \"#utility.yul\":5221:5223   */\n      0x13\n        /* \"#utility.yul\":5216:5219   */\n      dup4\n        /* \"#utility.yul\":5157:5224   */\n      tag_85\n      jump\t// in\n    tag_170:\n        /* \"#utility.yul\":5150:5224   */\n      swap2\n      pop\n        /* \"#utility.yul\":5233:5326   */\n      tag_171\n        /* \"#utility.yul\":5322:5325   */\n      dup3\n        /* \"#utility.yul\":5233:5326   */\n      tag_104\n      jump\t// in\n    tag_171:\n        /* \"#utility.yul\":5351:5353   */\n      0x20\n        /* \"#utility.yul\":5346:5349   */\n      dup3\n        /* \"#utility.yul\":5342:5354   */\n      add\n        /* \"#utility.yul\":5335:5354   */\n      swap1\n      pop\n        /* \"#utility.yul\":4994:5360   */\n      swap2\n      swap1\n      pop\n      jump\t// out\n        /* \"#utility.yul\":5366:5785   */\n    tag_46:\n        /* \"#utility.yul\":5532:5536   */\n      0x00\n        /* \"#utility.yul\":5570:5572   */\n      0x20\n        /* \"#utility.yul\":5559:5568   */\n      dup3\n        /* \"#utility.yul\":5555:5573   */\n      add\n        /* \"#utility.yul\":5547:5573   */\n      swap1\n      pop\n        /* \"#utility.yul\":5619:5628   */\n      dup2\n        /* \"#utility.yul\":5613:5617   */\n      dup2\n        /* \"#utility.yul\":5609:5629   */\n      sub\n        /* \"#utility.yul\":5605:5606   */\n      0x00\n        /* \"#utility.yul\":5594:5603   */\n      dup4\n        /* \"#utility.yul\":5590:5607   */\n      add\n        /* \"#utility.yul\":5583:5630   */\n      mstore\n        /* \"#utility.yul\":5647:5778   */\n      tag_173\n        /* \"#utility.yul\":5773:5777   */\n      dup2\n        /* \"#utility.yul\":5647:5778   */\n      tag_105\n      jump\t// in\n    tag_173:\n        /* \"#utility.yul\":5639:5778   */\n      swap1\n      pop\n        /* \"#utility.yul\":5366:5785   */\n      swap2\n      swap1\n      pop\n      jump\t// out\n        /* \"#utility.yul\":5791:5968   */\n    tag_106:\n        /* \"#utility.yul\":5931:5960   */\n      0x4e6f7420656e6f7567682045544820696e20636f6e74726163742e0000000000\n        /* \"#utility.yul\":5927:5928   */\n      0x00\n        /* \"#utility.yul\":5919:5925   */\n      dup3\n        /* \"#utility.yul\":5915:5929   */\n      add\n        /* \"#utility.yul\":5908:5961   */\n      mstore\n        /* \"#utility.yul\":5791:5968   */\n      pop\n      jump\t// out\n        /* \"#utility.yul\":5974:6340   */\n    tag_107:\n        /* \"#utility.yul\":6116:6119   */\n      0x00\n        /* \"#utility.yul\":6137:6204   */\n      tag_176\n        /* \"#utility.yul\":6201:6203   */\n      0x1b\n        /* \"#utility.yul\":6196:6199   */\n      dup4\n        /* \"#utility.yul\":6137:6204   */\n      tag_85\n      jump\t// in\n    tag_176:\n        /* \"#utility.yul\":6130:6204   */\n      swap2\n      pop\n        /* \"#utility.yul\":6213:6306   */\n      tag_177\n        /* \"#utility.yul\":6302:6305   */\n      dup3\n        /* \"#utility.yul\":6213:6306   */\n      tag_106\n      jump\t// in\n    tag_177:\n        /* \"#utility.yul\":6331:6333   */\n      0x20\n        /* \"#utility.yul\":6326:6329   */\n      dup3\n        /* \"#utility.yul\":6322:6334   */\n      add\n        /* \"#utility.yul\":6315:6334   */\n      swap1\n      pop\n        /* \"#utility.yul\":5974:6340   */\n      swap2\n      swap1\n      pop\n      jump\t// out\n        /* \"#utility.yul\":6346:6765   */\n    tag_50:\n        /* \"#utility.yul\":6512:6516   */\n      0x00\n        /* \"#utility.yul\":6550:6552   */\n      0x20\n        /* \"#utility.yul\":6539:6548   */\n      dup3\n        /* \"#utility.yul\":6535:6553   */\n      add\n        /* \"#utility.yul\":6527:6553   */\n      swap1\n      pop\n        /* \"#utility.yul\":6599:6608   */\n      dup2\n        /* \"#utility.yul\":6593:6597   */\n      dup2\n        /* \"#utility.yul\":6589:6609   */\n      sub\n        /* \"#utility.yul\":6585:6586   */\n      0x00\n        /* \"#utility.yul\":6574:6583   */\n      dup4\n        /* \"#utility.yul\":6570:6587   */\n      add\n        /* \"#utility.yul\":6563:6610   */\n      mstore\n        /* \"#utility.yul\":6627:6758   */\n      tag_179\n        /* \"#utility.yul\":6753:6757   */\n      dup2\n        /* \"#utility.yul\":6627:6758   */\n      tag_107\n      jump\t// in\n    tag_179:\n        /* \"#utility.yul\":6619:6758   */\n      swap1\n      pop\n        /* \"#utility.yul\":6346:6765   */\n      swap2\n      swap1\n      pop\n      jump\t// out\n        /* \"#utility.yul\":6771:6914   */\n    tag_108:\n        /* \"#utility.yul\":6828:6833   */\n      0x00\n        /* \"#utility.yul\":6859:6865   */\n      dup2\n        /* \"#utility.yul\":6853:6866   */\n      mload\n        /* \"#utility.yul\":6844:6866   */\n      swap1\n      pop\n        /* \"#utility.yul\":6875:6908   */\n      tag_181\n        /* \"#utility.yul\":6902:6907   */\n      dup2\n        /* \"#utility.yul\":6875:6908   */\n      tag_99\n      jump\t// in\n    tag_181:\n        /* \"#utility.yul\":6771:6914   */\n      swap3\n      swap2\n      pop\n      pop\n      jump\t// out\n        /* \"#utility.yul\":6920:7271   */\n    tag_76:\n        /* \"#utility.yul\":6990:6996   */\n      0x00\n        /* \"#utility.yul\":7039:7041   */\n      0x20\n        /* \"#utility.yul\":7027:7036   */\n      dup3\n        /* \"#utility.yul\":7018:7025   */\n      dup5\n        /* \"#utility.yul\":7014:7037   */\n      sub\n        /* \"#utility.yul\":7010:7042   */\n      slt\n        /* \"#utility.yul\":7007:7126   */\n      iszero\n      tag_183\n      jumpi\n        /* \"#utility.yul\":7045:7124   */\n      tag_184\n      tag_94\n      jump\t// in\n    tag_184:\n        /* \"#utility.yul\":7007:7126   */\n    tag_183:\n        /* \"#utility.yul\":7165:7166   */\n      0x00\n        /* \"#utility.yul\":7190:7254   */\n      tag_185\n        /* \"#utility.yul\":7246:7253   */\n      dup5\n        /* \"#utility.yul\":7237:7243   */\n      dup3\n        /* \"#utility.yul\":7226:7235   */\n      dup6\n        /* \"#utility.yul\":7222:7244   */\n      add\n        /* \"#utility.yul\":7190:7254   */\n      tag_108\n      jump\t// in\n    tag_185:\n        /* \"#utility.yul\":7180:7254   */\n      swap2\n      pop\n        /* \"#utility.yul\":7136:7264   */\n      pop\n        /* \"#utility.yul\":6920:7271   */\n      swap3\n      swap2\n      pop\n      pop\n      jump\t// out\n        /* \"#utility.yul\":7277:7455   */\n    tag_109:\n        /* \"#utility.yul\":7417:7447   */\n      0x4e6f20455243323020746f6b656e7320746f2077697468647261772e00000000\n        /* \"#utility.yul\":7413:7414   */\n      0x00\n        /* \"#utility.yul\":7405:7411   */\n      dup3\n        /* \"#utility.yul\":7401:7415   */\n      add\n        /* \"#utility.yul\":7394:7448   */\n      mstore\n        /* \"#utility.yul\":7277:7455   */\n      pop\n      jump\t// out\n        /* \"#utility.yul\":7461:7827   */\n    tag_110:\n        /* \"#utility.yul\":7603:7606   */\n      0x00\n        /* \"#utility.yul\":7624:7691   */\n      tag_188\n        /* \"#utility.yul\":7688:7690   */\n      0x1c\n        /* \"#utility.yul\":7683:7686   */\n      dup4\n        /* \"#utility.yul\":7624:7691   */\n      tag_85\n      jump\t// in\n    tag_188:\n        /* \"#utility.yul\":7617:7691   */\n      swap2\n      pop\n        /* \"#utility.yul\":7700:7793   */\n      tag_189\n        /* \"#utility.yul\":7789:7792   */\n      dup3\n        /* \"#utility.yul\":7700:7793   */\n      tag_109\n      jump\t// in\n    tag_189:\n        /* \"#utility.yul\":7818:7820   */\n      0x20\n        /* \"#utility.yul\":7813:7816   */\n      dup3\n        /* \"#utility.yul\":7809:7821   */\n      add\n        /* \"#utility.yul\":7802:7821   */\n      swap1\n      pop\n        /* \"#utility.yul\":7461:7827   */\n      swap2\n      swap1\n      pop\n      jump\t// out\n        /* \"#utility.yul\":7833:8252   */\n    tag_79:\n        /* \"#utility.yul\":7999:8003   */\n      0x00\n        /* \"#utility.yul\":8037:8039   */\n      0x20\n        /* \"#utility.yul\":8026:8035   */\n      dup3\n        /* \"#utility.yul\":8022:8040   */\n      add\n        /* \"#utility.yul\":8014:8040   */\n      swap1\n      pop\n        /* \"#utility.yul\":8086:8095   */\n      dup2\n        /* \"#utility.yul\":8080:8084   */\n      dup2\n        /* \"#utility.yul\":8076:8096   */\n      sub\n        /* \"#utility.yul\":8072:8073   */\n      0x00\n        /* \"#utility.yul\":8061:8070   */\n      dup4\n        /* \"#utility.yul\":8057:8074   */\n      add\n        /* \"#utility.yul\":8050:8097   */\n      mstore\n        /* \"#utility.yul\":8114:8245   */\n      tag_191\n        /* \"#utility.yul\":8240:8244   */\n      dup2\n        /* \"#utility.yul\":8114:8245   */\n      tag_110\n      jump\t// in\n    tag_191:\n        /* \"#utility.yul\":8106:8245   */\n      swap1\n      pop\n        /* \"#utility.yul\":7833:8252   */\n      swap2\n      swap1\n      pop\n      jump\t// out\n        /* \"#utility.yul\":8258:8348   */\n    tag_111:\n        /* \"#utility.yul\":8292:8299   */\n      0x00\n        /* \"#utility.yul\":8335:8340   */\n      dup2\n        /* \"#utility.yul\":8328:8341   */\n      iszero\n        /* \"#utility.yul\":8321:8342   */\n      iszero\n        /* \"#utility.yul\":8310:8342   */\n      swap1\n      pop\n        /* \"#utility.yul\":8258:8348   */\n      swap2\n      swap1\n      pop\n      jump\t// out\n        /* \"#utility.yul\":8354:8470   */\n    tag_112:\n        /* \"#utility.yul\":8424:8445   */\n      tag_194\n        /* \"#utility.yul\":8439:8444   */\n      dup2\n        /* \"#utility.yul\":8424:8445   */\n      tag_111\n      jump\t// in\n    tag_194:\n        /* \"#utility.yul\":8417:8422   */\n      dup2\n        /* \"#utility.yul\":8414:8446   */\n      eq\n        /* \"#utility.yul\":8404:8464   */\n      tag_195\n      jumpi\n        /* \"#utility.yul\":8460:8461   */\n      0x00\n        /* \"#utility.yul\":8457:8458   */\n      dup1\n        /* \"#utility.yul\":8450:8462   */\n      revert\n        /* \"#utility.yul\":8404:8464   */\n    tag_195:\n        /* \"#utility.yul\":8354:8470   */\n      pop\n      jump\t// out\n        /* \"#utility.yul\":8476:8613   */\n    tag_113:\n        /* \"#utility.yul\":8530:8535   */\n      0x00\n        /* \"#utility.yul\":8561:8567   */\n      dup2\n        /* \"#utility.yul\":8555:8568   */\n      mload\n        /* \"#utility.yul\":8546:8568   */\n      swap1\n      pop\n        /* \"#utility.yul\":8577:8607   */\n      tag_197\n        /* \"#utility.yul\":8601:8606   */\n      dup2\n        /* \"#utility.yul\":8577:8607   */\n      tag_112\n      jump\t// in\n    tag_197:\n        /* \"#utility.yul\":8476:8613   */\n      swap3\n      swap2\n      pop\n      pop\n      jump\t// out\n        /* \"#utility.yul\":8619:8964   */\n    tag_84:\n        /* \"#utility.yul\":8686:8692   */\n      0x00\n        /* \"#utility.yul\":8735:8737   */\n      0x20\n        /* \"#utility.yul\":8723:8732   */\n      dup3\n        /* \"#utility.yul\":8714:8721   */\n      dup5\n        /* \"#utility.yul\":8710:8733   */\n      sub\n        /* \"#utility.yul\":8706:8738   */\n      slt\n        /* \"#utility.yul\":8703:8822   */\n      iszero\n      tag_199\n      jumpi\n        /* \"#utility.yul\":8741:8820   */\n      tag_200\n      tag_94\n      jump\t// in\n    tag_200:\n        /* \"#utility.yul\":8703:8822   */\n    tag_199:\n        /* \"#utility.yul\":8861:8862   */\n      0x00\n        /* \"#utility.yul\":8886:8947   */\n      tag_201\n        /* \"#utility.yul\":8939:8946   */\n      dup5\n        /* \"#utility.yul\":8930:8936   */\n      dup3\n        /* \"#utility.yul\":8919:8928   */\n      dup6\n        /* \"#utility.yul\":8915:8937   */\n      add\n        /* \"#utility.yul\":8886:8947   */\n      tag_113\n      jump\t// in\n    tag_201:\n        /* \"#utility.yul\":8876:8947   */\n      swap2\n      pop\n        /* \"#utility.yul\":8832:8957   */\n      pop\n        /* \"#utility.yul\":8619:8964   */\n      swap3\n      swap2\n      pop\n      pop\n      jump\t// out\n\n    auxdata: 0xa26469706673582212208a23a645aa5d29507e2fee87332941a18bd185a46d9284bf9be440929ae4f20f64736f6c63430008160033\n}\n",
				"bytecode": {
					"linkReferences": {},
					"object": "608060405234801561000f575f80fd5b50335f806101000a81548173ffffffffffffffffffffffffffffffffffffffff021916908373ffffffffffffffffffffffffffffffffffffffff160217905550610b378061005c5f395ff3fe608060405260043610610058575f3560e01c806364a197f3146100de5780636f9fb98a14610106578063853828b6146101305780638da5cb5b14610146578063f3fef3a314610170578063f4f3b20014610198576100da565b366100da575f341161009f576040517f08c379a00000000000000000000000000000000000000000000000000000000081526004016100969061074f565b60405180910390fd5b7f88a5966d370b9919b20f3e2c13ff65706f196a4e32cc2c12bf57088f8852587433346040516100d09291906107c4565b60405180910390a1005b5f80fd5b3480156100e9575f80fd5b5061010460048036038101906100ff9190610854565b6101c0565b005b348015610111575f80fd5b5061011a6102d8565b6040516101279190610892565b60405180910390f35b34801561013b575f80fd5b506101446102df565b005b348015610151575f80fd5b5061015a6103d1565b60405161016791906108ab565b60405180910390f35b34801561017b575f80fd5b5061019660048036038101906101919190610854565b6103f4565b005b3480156101a3575f80fd5b506101be60048036038101906101b991906108ff565b61050c565b005b5f8054906101000a900473ffffffffffffffffffffffffffffffffffffffff1673ffffffffffffffffffffffffffffffffffffffff163373ffffffffffffffffffffffffffffffffffffffff161461024d576040517f08c379a000000000000000000000000000000000000000000000000000000000815260040161024490610974565b60405180910390fd5b80471015610290576040517f08c379a0000000000000000000000000000000000000000000000000000000008152600401610287906109dc565b60405180910390fd5b8173ffffffffffffffffffffffffffffffffffffffff166108fc8290811502906040515f60405180830381858888f193505050501580156102d3573d5f803e3d5ffd5b505050565b5f47905090565b5f8054906101000a900473ffffffffffffffffffffffffffffffffffffffff1673ffffffffffffffffffffffffffffffffffffffff163373ffffffffffffffffffffffffffffffffffffffff161461036c576040517f08c379a000000000000000000000000000000000000000000000000000000000815260040161036390610974565b60405180910390fd5b5f8054906101000a900473ffffffffffffffffffffffffffffffffffffffff1673ffffffffffffffffffffffffffffffffffffffff166108fc4790811502906040515f60405180830381858888f193505050501580156103ce573d5f803e3d5ffd5b50565b5f8054906101000a900473ffffffffffffffffffffffffffffffffffffffff1681565b5f8054906101000a900473ffffffffffffffffffffffffffffffffffffffff1673ffffffffffffffffffffffffffffffffffffffff163373ffffffffffffffffffffffffffffffffffffffff1614610481576040517f08c379a000000000000000000000000000000000000000000000000000000000815260040161047890610974565b60405180910390fd5b804710156104c4576040517f08c379a00000000000000000000000000000000000000000000000000000000081526004016104bb906109dc565b60405180910390fd5b8173ffffffffffffffffffffffffffffffffffffffff166108fc8290811502906040515f60405180830381858888f19350505050158015610507573d5f803e3d5ffd5b505050565b5f8054906101000a900473ffffffffffffffffffffffffffffffffffffffff1673ffffffffffffffffffffffffffffffffffffffff163373ffffffffffffffffffffffffffffffffffffffff1614610599576040517f08c379a000000000000000000000000000000000000000000000000000000000815260040161059090610974565b60405180910390fd5b5f8173ffffffffffffffffffffffffffffffffffffffff166370a08231306040518263ffffffff1660e01b81526004016105d391906108ab565b602060405180830381865afa1580156105ee573d5f803e3d5ffd5b505050506040513d601f19601f820116820180604052508101906106129190610a0e565b90505f8111610656576040517f08c379a000000000000000000000000000000000000000000000000000000000815260040161064d90610a83565b60405180910390fd5b8173ffffffffffffffffffffffffffffffffffffffff1663a9059cbb5f8054906101000a900473ffffffffffffffffffffffffffffffffffffffff16836040518363ffffffff1660e01b81526004016106b09291906107c4565b6020604051808303815f875af11580156106cc573d5f803e3d5ffd5b505050506040513d601f19601f820116820180604052508101906106f09190610ad6565b505050565b5f82825260208201905092915050565b7f4d7573742073656e6420455448000000000000000000000000000000000000005f82015250565b5f610739600d836106f5565b915061074482610705565b602082019050919050565b5f6020820190508181035f8301526107668161072d565b9050919050565b5f73ffffffffffffffffffffffffffffffffffffffff82169050919050565b5f6107968261076d565b9050919050565b6107a68161078c565b82525050565b5f819050919050565b6107be816107ac565b82525050565b5f6040820190506107d75f83018561079d565b6107e460208301846107b5565b9392505050565b5f80fd5b5f6107f98261076d565b9050919050565b610809816107ef565b8114610813575f80fd5b50565b5f8135905061082481610800565b92915050565b610833816107ac565b811461083d575f80fd5b50565b5f8135905061084e8161082a565b92915050565b5f806040838503121561086a576108696107eb565b5b5f61087785828601610816565b925050602061088885828601610840565b9150509250929050565b5f6020820190506108a55f8301846107b5565b92915050565b5f6020820190506108be5f83018461079d565b92915050565b5f6108ce8261078c565b9050919050565b6108de816108c4565b81146108e8575f80fd5b50565b5f813590506108f9816108d5565b92915050565b5f60208284031215610914576109136107eb565b5b5f610921848285016108eb565b91505092915050565b7f43616c6c6572206973206e6f74206f776e6572000000000000000000000000005f82015250565b5f61095e6013836106f5565b91506109698261092a565b602082019050919050565b5f6020820190508181035f83015261098b81610952565b9050919050565b7f4e6f7420656e6f7567682045544820696e20636f6e74726163742e00000000005f82015250565b5f6109c6601b836106f5565b91506109d182610992565b602082019050919050565b5f6020820190508181035f8301526109f3816109ba565b9050919050565b5f81519050610a088161082a565b92915050565b5f60208284031215610a2357610a226107eb565b5b5f610a30848285016109fa565b91505092915050565b7f4e6f20455243323020746f6b656e7320746f2077697468647261772e000000005f82015250565b5f610a6d601c836106f5565b9150610a7882610a39565b602082019050919050565b5f6020820190508181035f830152610a9a81610a61565b9050919050565b5f8115159050919050565b610ab581610aa1565b8114610abf575f80fd5b50565b5f81519050610ad081610aac565b92915050565b5f60208284031215610aeb57610aea6107eb565b5b5f610af884828501610ac2565b9150509291505056fea26469706673582212208a23a645aa5d29507e2fee87332941a18bd185a46d9284bf9be440929ae4f20f64736f6c63430008160033",
					"opcodes": "PUSH1 0x80 PUSH1 0x40 MSTORE CALLVALUE DUP1 ISZERO PUSH2 0xF JUMPI PUSH0 DUP1 REVERT JUMPDEST POP CALLER PUSH0 DUP1 PUSH2 0x100 EXP DUP2 SLOAD DUP2 PUSH20 0xFFFFFFFFFFFFFFFFFFFFFFFFFFFFFFFFFFFFFFFF MUL NOT AND SWAP1 DUP4 PUSH20 0xFFFFFFFFFFFFFFFFFFFFFFFFFFFFFFFFFFFFFFFF AND MUL OR SWAP1 SSTORE POP PUSH2 0xB37 DUP1 PUSH2 0x5C PUSH0 CODECOPY PUSH0 RETURN INVALID PUSH1 0x80 PUSH1 0x40 MSTORE PUSH1 0x4 CALLDATASIZE LT PUSH2 0x58 JUMPI PUSH0 CALLDATALOAD PUSH1 0xE0 SHR DUP1 PUSH4 0x64A197F3 EQ PUSH2 0xDE JUMPI DUP1 PUSH4 0x6F9FB98A EQ PUSH2 0x106 JUMPI DUP1 PUSH4 0x853828B6 EQ PUSH2 0x130 JUMPI DUP1 PUSH4 0x8DA5CB5B EQ PUSH2 0x146 JUMPI DUP1 PUSH4 0xF3FEF3A3 EQ PUSH2 0x170 JUMPI DUP1 PUSH4 0xF4F3B200 EQ PUSH2 0x198 JUMPI PUSH2 0xDA JUMP JUMPDEST CALLDATASIZE PUSH2 0xDA JUMPI PUSH0 CALLVALUE GT PUSH2 0x9F JUMPI PUSH1 0x40 MLOAD PUSH32 0x8C379A000000000000000000000000000000000000000000000000000000000 DUP2 MSTORE PUSH1 0x4 ADD PUSH2 0x96 SWAP1 PUSH2 0x74F JUMP JUMPDEST PUSH1 0x40 MLOAD DUP1 SWAP2 SUB SWAP1 REVERT JUMPDEST PUSH32 0x88A5966D370B9919B20F3E2C13FF65706F196A4E32CC2C12BF57088F88525874 CALLER CALLVALUE PUSH1 0x40 MLOAD PUSH2 0xD0 SWAP3 SWAP2 SWAP1 PUSH2 0x7C4 JUMP JUMPDEST PUSH1 0x40 MLOAD DUP1 SWAP2 SUB SWAP1 LOG1 STOP JUMPDEST PUSH0 DUP1 REVERT JUMPDEST CALLVALUE DUP1 ISZERO PUSH2 0xE9 JUMPI PUSH0 DUP1 REVERT JUMPDEST POP PUSH2 0x104 PUSH1 0x4 DUP1 CALLDATASIZE SUB DUP2 ADD SWAP1 PUSH2 0xFF SWAP2 SWAP1 PUSH2 0x854 JUMP JUMPDEST PUSH2 0x1C0 JUMP JUMPDEST STOP JUMPDEST CALLVALUE DUP1 ISZERO PUSH2 0x111 JUMPI PUSH0 DUP1 REVERT JUMPDEST POP PUSH2 0x11A PUSH2 0x2D8 JUMP JUMPDEST PUSH1 0x40 MLOAD PUSH2 0x127 SWAP2 SWAP1 PUSH2 0x892 JUMP JUMPDEST PUSH1 0x40 MLOAD DUP1 SWAP2 SUB SWAP1 RETURN JUMPDEST CALLVALUE DUP1 ISZERO PUSH2 0x13B JUMPI PUSH0 DUP1 REVERT JUMPDEST POP PUSH2 0x144 PUSH2 0x2DF JUMP JUMPDEST STOP JUMPDEST CALLVALUE DUP1 ISZERO PUSH2 0x151 JUMPI PUSH0 DUP1 REVERT JUMPDEST POP PUSH2 0x15A PUSH2 0x3D1 JUMP JUMPDEST PUSH1 0x40 MLOAD PUSH2 0x167 SWAP2 SWAP1 PUSH2 0x8AB JUMP JUMPDEST PUSH1 0x40 MLOAD DUP1 SWAP2 SUB SWAP1 RETURN JUMPDEST CALLVALUE DUP1 ISZERO PUSH2 0x17B JUMPI PUSH0 DUP1 REVERT JUMPDEST POP PUSH2 0x196 PUSH1 0x4 DUP1 CALLDATASIZE SUB DUP2 ADD SWAP1 PUSH2 0x191 SWAP2 SWAP1 PUSH2 0x854 JUMP JUMPDEST PUSH2 0x3F4 JUMP JUMPDEST STOP JUMPDEST CALLVALUE DUP1 ISZERO PUSH2 0x1A3 JUMPI PUSH0 DUP1 REVERT JUMPDEST POP PUSH2 0x1BE PUSH1 0x4 DUP1 CALLDATASIZE SUB DUP2 ADD SWAP1 PUSH2 0x1B9 SWAP2 SWAP1 PUSH2 0x8FF JUMP JUMPDEST PUSH2 0x50C JUMP JUMPDEST STOP JUMPDEST PUSH0 DUP1 SLOAD SWAP1 PUSH2 0x100 EXP SWAP1 DIV PUSH20 0xFFFFFFFFFFFFFFFFFFFFFFFFFFFFFFFFFFFFFFFF AND PUSH20 0xFFFFFFFFFFFFFFFFFFFFFFFFFFFFFFFFFFFFFFFF AND CALLER PUSH20 0xFFFFFFFFFFFFFFFFFFFFFFFFFFFFFFFFFFFFFFFF AND EQ PUSH2 0x24D JUMPI PUSH1 0x40 MLOAD PUSH32 0x8C379A000000000000000000000000000000000000000000000000000000000 DUP2 MSTORE PUSH1 0x4 ADD PUSH2 0x244 SWAP1 PUSH2 0x974 JUMP JUMPDEST PUSH1 0x40 MLOAD DUP1 SWAP2 SUB SWAP1 REVERT JUMPDEST DUP1 SELFBALANCE LT ISZERO PUSH2 0x290 JUMPI PUSH1 0x40 MLOAD PUSH32 0x8C379A000000000000000000000000000000000000000000000000000000000 DUP2 MSTORE PUSH1 0x4 ADD PUSH2 0x287 SWAP1 PUSH2 0x9DC JUMP JUMPDEST PUSH1 0x40 MLOAD DUP1 SWAP2 SUB SWAP1 REVERT JUMPDEST DUP2 PUSH20 0xFFFFFFFFFFFFFFFFFFFFFFFFFFFFFFFFFFFFFFFF AND PUSH2 0x8FC DUP3 SWAP1 DUP2 ISZERO MUL SWAP1 PUSH1 0x40 MLOAD PUSH0 PUSH1 0x40 MLOAD DUP1 DUP4 SUB DUP2 DUP6 DUP9 DUP9 CALL SWAP4 POP POP POP POP ISZERO DUP1 ISZERO PUSH2 0x2D3 JUMPI RETURNDATASIZE PUSH0 DUP1 RETURNDATACOPY RETURNDATASIZE PUSH0 REVERT JUMPDEST POP POP POP JUMP JUMPDEST PUSH0 SELFBALANCE SWAP1 POP SWAP1 JUMP JUMPDEST PUSH0 DUP1 SLOAD SWAP1 PUSH2 0x100 EXP SWAP1 DIV PUSH20 0xFFFFFFFFFFFFFFFFFFFFFFFFFFFFFFFFFFFFFFFF AND PUSH20 0xFFFFFFFFFFFFFFFFFFFFFFFFFFFFFFFFFFFFFFFF AND CALLER PUSH20 0xFFFFFFFFFFFFFFFFFFFFFFFFFFFFFFFFFFFFFFFF AND EQ PUSH2 0x36C JUMPI PUSH1 0x40 MLOAD PUSH32 0x8C379A000000000000000000000000000000000000000000000000000000000 DUP2 MSTORE PUSH1 0x4 ADD PUSH2 0x363 SWAP1 PUSH2 0x974 JUMP JUMPDEST PUSH1 0x40 MLOAD DUP1 SWAP2 SUB SWAP1 REVERT JUMPDEST PUSH0 DUP1 SLOAD SWAP1 PUSH2 0x100 EXP SWAP1 DIV PUSH20 0xFFFFFFFFFFFFFFFFFFFFFFFFFFFFFFFFFFFFFFFF AND PUSH20 0xFFFFFFFFFFFFFFFFFFFFFFFFFFFFFFFFFFFFFFFF AND PUSH2 0x8FC SELFBALANCE SWAP1 DUP2 ISZERO MUL SWAP1 PUSH1 0x40 MLOAD PUSH0 PUSH1 0x40 MLOAD DUP1 DUP4 SUB DUP2 DUP6 DUP9 DUP9 CALL SWAP4 POP POP POP POP ISZERO DUP1 ISZERO PUSH2 0x3CE JUMPI RETURNDATASIZE PUSH0 DUP1 RETURNDATACOPY RETURNDATASIZE PUSH0 REVERT JUMPDEST POP JUMP JUMPDEST PUSH0 DUP1 SLOAD SWAP1 PUSH2 0x100 EXP SWAP1 DIV PUSH20 0xFFFFFFFFFFFFFFFFFFFFFFFFFFFFFFFFFFFFFFFF AND DUP2 JUMP JUMPDEST PUSH0 DUP1 SLOAD SWAP1 PUSH2 0x100 EXP SWAP1 DIV PUSH20 0xFFFFFFFFFFFFFFFFFFFFFFFFFFFFFFFFFFFFFFFF AND PUSH20 0xFFFFFFFFFFFFFFFFFFFFFFFFFFFFFFFFFFFFFFFF AND CALLER PUSH20 0xFFFFFFFFFFFFFFFFFFFFFFFFFFFFFFFFFFFFFFFF AND EQ PUSH2 0x481 JUMPI PUSH1 0x40 MLOAD PUSH32 0x8C379A000000000000000000000000000000000000000000000000000000000 DUP2 MSTORE PUSH1 0x4 ADD PUSH2 0x478 SWAP1 PUSH2 0x974 JUMP JUMPDEST PUSH1 0x40 MLOAD DUP1 SWAP2 SUB SWAP1 REVERT JUMPDEST DUP1 SELFBALANCE LT ISZERO PUSH2 0x4C4 JUMPI PUSH1 0x40 MLOAD PUSH32 0x8C379A000000000000000000000000000000000000000000000000000000000 DUP2 MSTORE PUSH1 0x4 ADD PUSH2 0x4BB SWAP1 PUSH2 0x9DC JUMP JUMPDEST PUSH1 0x40 MLOAD DUP1 SWAP2 SUB SWAP1 REVERT JUMPDEST DUP2 PUSH20 0xFFFFFFFFFFFFFFFFFFFFFFFFFFFFFFFFFFFFFFFF AND PUSH2 0x8FC DUP3 SWAP1 DUP2 ISZERO MUL SWAP1 PUSH1 0x40 MLOAD PUSH0 PUSH1 0x40 MLOAD DUP1 DUP4 SUB DUP2 DUP6 DUP9 DUP9 CALL SWAP4 POP POP POP POP ISZERO DUP1 ISZERO PUSH2 0x507 JUMPI RETURNDATASIZE PUSH0 DUP1 RETURNDATACOPY RETURNDATASIZE PUSH0 REVERT JUMPDEST POP POP POP JUMP JUMPDEST PUSH0 DUP1 SLOAD SWAP1 PUSH2 0x100 EXP SWAP1 DIV PUSH20 0xFFFFFFFFFFFFFFFFFFFFFFFFFFFFFFFFFFFFFFFF AND PUSH20 0xFFFFFFFFFFFFFFFFFFFFFFFFFFFFFFFFFFFFFFFF AND CALLER PUSH20 0xFFFFFFFFFFFFFFFFFFFFFFFFFFFFFFFFFFFFFFFF AND EQ PUSH2 0x599 JUMPI PUSH1 0x40 MLOAD PUSH32 0x8C379A000000000000000000000000000000000000000000000000000000000 DUP2 MSTORE PUSH1 0x4 ADD PUSH2 0x590 SWAP1 PUSH2 0x974 JUMP JUMPDEST PUSH1 0x40 MLOAD DUP1 SWAP2 SUB SWAP1 REVERT JUMPDEST PUSH0 DUP2 PUSH20 0xFFFFFFFFFFFFFFFFFFFFFFFFFFFFFFFFFFFFFFFF AND PUSH4 0x70A08231 ADDRESS PUSH1 0x40 MLOAD DUP3 PUSH4 0xFFFFFFFF AND PUSH1 0xE0 SHL DUP2 MSTORE PUSH1 0x4 ADD PUSH2 0x5D3 SWAP2 SWAP1 PUSH2 0x8AB JUMP JUMPDEST PUSH1 0x20 PUSH1 0x40 MLOAD DUP1 DUP4 SUB DUP2 DUP7 GAS STATICCALL ISZERO DUP1 ISZERO PUSH2 0x5EE JUMPI RETURNDATASIZE PUSH0 DUP1 RETURNDATACOPY RETURNDATASIZE PUSH0 REVERT JUMPDEST POP POP POP POP PUSH1 0x40 MLOAD RETURNDATASIZE PUSH1 0x1F NOT PUSH1 0x1F DUP3 ADD AND DUP3 ADD DUP1 PUSH1 0x40 MSTORE POP DUP2 ADD SWAP1 PUSH2 0x612 SWAP2 SWAP1 PUSH2 0xA0E JUMP JUMPDEST SWAP1 POP PUSH0 DUP2 GT PUSH2 0x656 JUMPI PUSH1 0x40 MLOAD PUSH32 0x8C379A000000000000000000000000000000000000000000000000000000000 DUP2 MSTORE PUSH1 0x4 ADD PUSH2 0x64D SWAP1 PUSH2 0xA83 JUMP JUMPDEST PUSH1 0x40 MLOAD DUP1 SWAP2 SUB SWAP1 REVERT JUMPDEST DUP2 PUSH20 0xFFFFFFFFFFFFFFFFFFFFFFFFFFFFFFFFFFFFFFFF AND PUSH4 0xA9059CBB PUSH0 DUP1 SLOAD SWAP1 PUSH2 0x100 EXP SWAP1 DIV PUSH20 0xFFFFFFFFFFFFFFFFFFFFFFFFFFFFFFFFFFFFFFFF AND DUP4 PUSH1 0x40 MLOAD DUP4 PUSH4 0xFFFFFFFF AND PUSH1 0xE0 SHL DUP2 MSTORE PUSH1 0x4 ADD PUSH2 0x6B0 SWAP3 SWAP2 SWAP1 PUSH2 0x7C4 JUMP JUMPDEST PUSH1 0x20 PUSH1 0x40 MLOAD DUP1 DUP4 SUB DUP2 PUSH0 DUP8 GAS CALL ISZERO DUP1 ISZERO PUSH2 0x6CC JUMPI RETURNDATASIZE PUSH0 DUP1 RETURNDATACOPY RETURNDATASIZE PUSH0 REVERT JUMPDEST POP POP POP POP PUSH1 0x40 MLOAD RETURNDATASIZE PUSH1 0x1F NOT PUSH1 0x1F DUP3 ADD AND DUP3 ADD DUP1 PUSH1 0x40 MSTORE POP DUP2 ADD SWAP1 PUSH2 0x6F0 SWAP2 SWAP1 PUSH2 0xAD6 JUMP JUMPDEST POP POP POP JUMP JUMPDEST PUSH0 DUP3 DUP3 MSTORE PUSH1 0x20 DUP3 ADD SWAP1 POP SWAP3 SWAP2 POP POP JUMP JUMPDEST PUSH32 0x4D7573742073656E642045544800000000000000000000000000000000000000 PUSH0 DUP3 ADD MSTORE POP JUMP JUMPDEST PUSH0 PUSH2 0x739 PUSH1 0xD DUP4 PUSH2 0x6F5 JUMP JUMPDEST SWAP2 POP PUSH2 0x744 DUP3 PUSH2 0x705 JUMP JUMPDEST PUSH1 0x20 DUP3 ADD SWAP1 POP SWAP2 SWAP1 POP JUMP JUMPDEST PUSH0 PUSH1 0x20 DUP3 ADD SWAP1 POP DUP2 DUP2 SUB PUSH0 DUP4 ADD MSTORE PUSH2 0x766 DUP2 PUSH2 0x72D JUMP JUMPDEST SWAP1 POP SWAP2 SWAP1 POP JUMP JUMPDEST PUSH0 PUSH20 0xFFFFFFFFFFFFFFFFFFFFFFFFFFFFFFFFFFFFFFFF DUP3 AND SWAP1 POP SWAP2 SWAP1 POP JUMP JUMPDEST PUSH0 PUSH2 0x796 DUP3 PUSH2 0x76D JUMP JUMPDEST SWAP1 POP SWAP2 SWAP1 POP JUMP JUMPDEST PUSH2 0x7A6 DUP2 PUSH2 0x78C JUMP JUMPDEST DUP3 MSTORE POP POP JUMP JUMPDEST PUSH0 DUP2 SWAP1 POP SWAP2 SWAP1 POP JUMP JUMPDEST PUSH2 0x7BE DUP2 PUSH2 0x7AC JUMP JUMPDEST DUP3 MSTORE POP POP JUMP JUMPDEST PUSH0 PUSH1 0x40 DUP3 ADD SWAP1 POP PUSH2 0x7D7 PUSH0 DUP4 ADD DUP6 PUSH2 0x79D JUMP JUMPDEST PUSH2 0x7E4 PUSH1 0x20 DUP4 ADD DUP5 PUSH2 0x7B5 JUMP JUMPDEST SWAP4 SWAP3 POP POP POP JUMP JUMPDEST PUSH0 DUP1 REVERT JUMPDEST PUSH0 PUSH2 0x7F9 DUP3 PUSH2 0x76D JUMP JUMPDEST SWAP1 POP SWAP2 SWAP1 POP JUMP JUMPDEST PUSH2 0x809 DUP2 PUSH2 0x7EF JUMP JUMPDEST DUP2 EQ PUSH2 0x813 JUMPI PUSH0 DUP1 REVERT JUMPDEST POP JUMP JUMPDEST PUSH0 DUP2 CALLDATALOAD SWAP1 POP PUSH2 0x824 DUP2 PUSH2 0x800 JUMP JUMPDEST SWAP3 SWAP2 POP POP JUMP JUMPDEST PUSH2 0x833 DUP2 PUSH2 0x7AC JUMP JUMPDEST DUP2 EQ PUSH2 0x83D JUMPI PUSH0 DUP1 REVERT JUMPDEST POP JUMP JUMPDEST PUSH0 DUP2 CALLDATALOAD SWAP1 POP PUSH2 0x84E DUP2 PUSH2 0x82A JUMP JUMPDEST SWAP3 SWAP2 POP POP JUMP JUMPDEST PUSH0 DUP1 PUSH1 0x40 DUP4 DUP6 SUB SLT ISZERO PUSH2 0x86A JUMPI PUSH2 0x869 PUSH2 0x7EB JUMP JUMPDEST JUMPDEST PUSH0 PUSH2 0x877 DUP6 DUP3 DUP7 ADD PUSH2 0x816 JUMP JUMPDEST SWAP3 POP POP PUSH1 0x20 PUSH2 0x888 DUP6 DUP3 DUP7 ADD PUSH2 0x840 JUMP JUMPDEST SWAP2 POP POP SWAP3 POP SWAP3 SWAP1 POP JUMP JUMPDEST PUSH0 PUSH1 0x20 DUP3 ADD SWAP1 POP PUSH2 0x8A5 PUSH0 DUP4 ADD DUP5 PUSH2 0x7B5 JUMP JUMPDEST SWAP3 SWAP2 POP POP JUMP JUMPDEST PUSH0 PUSH1 0x20 DUP3 ADD SWAP1 POP PUSH2 0x8BE PUSH0 DUP4 ADD DUP5 PUSH2 0x79D JUMP JUMPDEST SWAP3 SWAP2 POP POP JUMP JUMPDEST PUSH0 PUSH2 0x8CE DUP3 PUSH2 0x78C JUMP JUMPDEST SWAP1 POP SWAP2 SWAP1 POP JUMP JUMPDEST PUSH2 0x8DE DUP2 PUSH2 0x8C4 JUMP JUMPDEST DUP2 EQ PUSH2 0x8E8 JUMPI PUSH0 DUP1 REVERT JUMPDEST POP JUMP JUMPDEST PUSH0 DUP2 CALLDATALOAD SWAP1 POP PUSH2 0x8F9 DUP2 PUSH2 0x8D5 JUMP JUMPDEST SWAP3 SWAP2 POP POP JUMP JUMPDEST PUSH0 PUSH1 0x20 DUP3 DUP5 SUB SLT ISZERO PUSH2 0x914 JUMPI PUSH2 0x913 PUSH2 0x7EB JUMP JUMPDEST JUMPDEST PUSH0 PUSH2 0x921 DUP5 DUP3 DUP6 ADD PUSH2 0x8EB JUMP JUMPDEST SWAP2 POP POP SWAP3 SWAP2 POP POP JUMP JUMPDEST PUSH32 0x43616C6C6572206973206E6F74206F776E657200000000000000000000000000 PUSH0 DUP3 ADD MSTORE POP JUMP JUMPDEST PUSH0 PUSH2 0x95E PUSH1 0x13 DUP4 PUSH2 0x6F5 JUMP JUMPDEST SWAP2 POP PUSH2 0x969 DUP3 PUSH2 0x92A JUMP JUMPDEST PUSH1 0x20 DUP3 ADD SWAP1 POP SWAP2 SWAP1 POP JUMP JUMPDEST PUSH0 PUSH1 0x20 DUP3 ADD SWAP1 POP DUP2 DUP2 SUB PUSH0 DUP4 ADD MSTORE PUSH2 0x98B DUP2 PUSH2 0x952 JUMP JUMPDEST SWAP1 POP SWAP2 SWAP1 POP JUMP JUMPDEST PUSH32 0x4E6F7420656E6F7567682045544820696E20636F6E74726163742E0000000000 PUSH0 DUP3 ADD MSTORE POP JUMP JUMPDEST PUSH0 PUSH2 0x9C6 PUSH1 0x1B DUP4 PUSH2 0x6F5 JUMP JUMPDEST SWAP2 POP PUSH2 0x9D1 DUP3 PUSH2 0x992 JUMP JUMPDEST PUSH1 0x20 DUP3 ADD SWAP1 POP SWAP2 SWAP1 POP JUMP JUMPDEST PUSH0 PUSH1 0x20 DUP3 ADD SWAP1 POP DUP2 DUP2 SUB PUSH0 DUP4 ADD MSTORE PUSH2 0x9F3 DUP2 PUSH2 0x9BA JUMP JUMPDEST SWAP1 POP SWAP2 SWAP1 POP JUMP JUMPDEST PUSH0 DUP2 MLOAD SWAP1 POP PUSH2 0xA08 DUP2 PUSH2 0x82A JUMP JUMPDEST SWAP3 SWAP2 POP POP JUMP JUMPDEST PUSH0 PUSH1 0x20 DUP3 DUP5 SUB SLT ISZERO PUSH2 0xA23 JUMPI PUSH2 0xA22 PUSH2 0x7EB JUMP JUMPDEST JUMPDEST PUSH0 PUSH2 0xA30 DUP5 DUP3 DUP6 ADD PUSH2 0x9FA JUMP JUMPDEST SWAP2 POP POP SWAP3 SWAP2 POP POP JUMP JUMPDEST PUSH32 0x4E6F20455243323020746F6B656E7320746F2077697468647261772E00000000 PUSH0 DUP3 ADD MSTORE POP JUMP JUMPDEST PUSH0 PUSH2 0xA6D PUSH1 0x1C DUP4 PUSH2 0x6F5 JUMP JUMPDEST SWAP2 POP PUSH2 0xA78 DUP3 PUSH2 0xA39 JUMP JUMPDEST PUSH1 0x20 DUP3 ADD SWAP1 POP SWAP2 SWAP1 POP JUMP JUMPDEST PUSH0 PUSH1 0x20 DUP3 ADD SWAP1 POP DUP2 DUP2 SUB PUSH0 DUP4 ADD MSTORE PUSH2 0xA9A DUP2 PUSH2 0xA61 JUMP JUMPDEST SWAP1 POP SWAP2 SWAP1 POP JUMP JUMPDEST PUSH0 DUP2 ISZERO ISZERO SWAP1 POP SWAP2 SWAP1 POP JUMP JUMPDEST PUSH2 0xAB5 DUP2 PUSH2 0xAA1 JUMP JUMPDEST DUP2 EQ PUSH2 0xABF JUMPI PUSH0 DUP1 REVERT JUMPDEST POP JUMP JUMPDEST PUSH0 DUP2 MLOAD SWAP1 POP PUSH2 0xAD0 DUP2 PUSH2 0xAAC JUMP JUMPDEST SWAP3 SWAP2 POP POP JUMP JUMPDEST PUSH0 PUSH1 0x20 DUP3 DUP5 SUB SLT ISZERO PUSH2 0xAEB JUMPI PUSH2 0xAEA PUSH2 0x7EB JUMP JUMPDEST JUMPDEST PUSH0 PUSH2 0xAF8 DUP5 DUP3 DUP6 ADD PUSH2 0xAC2 JUMP JUMPDEST SWAP2 POP POP SWAP3 SWAP2 POP POP JUMP INVALID LOG2 PUSH5 0x6970667358 0x22 SLT KECCAK256 DUP11 0x23 0xA6 GASLIMIT 0xAA 0x5D 0x29 POP PUSH31 0x2FEE87332941A18BD185A46D9284BF9BE440929AE4F20F64736F6C63430008 AND STOP CALLER "
				},
				"gasEstimates": {
					"creation": {
						"codeDepositCost": "574200",
						"executionCost": "24869",
						"totalCost": "599069"
					},
					"external": {
						"getContractBalance()": "334",
						"owner()": "2549",
						"sendETH(address,uint256)": "infinite",
						"withdraw(address,uint256)": "infinite",
						"withdrawAll()": "infinite",
						"withdrawERC20(address)": "infinite"
					}
				},
				"methodIdentifiers": {
					"getContractBalance()": "6f9fb98a",
					"owner()": "8da5cb5b",
					"sendETH(address,uint256)": "64a197f3",
					"withdraw(address,uint256)": "f3fef3a3",
					"withdrawAll()": "853828b6",
					"withdrawERC20(address)": "f4f3b200"
				}
			},
			"storageLayout": {
				"storage": [
					{
						"astId": 20,
						"contract": "locketh.sol:ETHTransfer",
						"label": "owner",
						"offset": 0,
						"slot": "0",
						"type": "t_address"
					}
				],
				"types": {
					"t_address": {
						"encoding": "inplace",
						"label": "address",
						"numberOfBytes": "20"
					}
				}
			},
			"userdoc": {
				"kind": "user",
				"methods": {},
				"version": 1
			}
		}
	}
}